:100000006F002053130000001300000013000000D5
:100010001300000013000000130000001300000094
:100020001300000013000000130000001300000084
:08003000130000007300100032
:100038000000000000000000A8020000AC02000060
:10004800000000007804000000000000000000002C
:100058007A0400007C04000000000000000000009A
:100068007E04000000000000800400000000000082
:100078008204000084040000860400008804000054
:100088008A0400008C0400008E0400009004000024
:1000980092040000940400009604000098040000F4
:1000A8009A0400009C0400009E040000A0040000C4
:1000B800A2040000A4040000A6040000A804000094
:1000C800AA040000AC040000AE040000B004000064
:1000D800B2040000B4040000B6040000B804000034
:1000E800BA040000BC040000BE040000C004000004
:1000F800C2040000C4040000C6040000C8040000D4
:10010800CA040000CC040000CE040000D0040000A3
:10011800D2040000D4040000D6040000D804000073
:10012800DA040000DC040000DE040000E004000043
:10013800E2040000E4040000E6040000E804000013
:10014800EA040000EC040000EE040000F0040000E3
:10015800F2040000F4040000F6040000F8040000B3
:10016800FA040000FC040000FE0400000005000082
:10017800020500000405000006050000080500004F
:100188000A0500000C0500000E050000100500001F
:1001980012050000140500001605000018050000EF
:1001A8001A0500001C0500001E05000020050000BF
:1001B800220500002405000026050000280500008F
:1001C8002A0500002C0500002E050000300500005F
:1001D8000000000000000000000000000000000017
:1001E8000000000000000000000000000000000007
:0801F8000000000000000000FF
:100200003D432A876373C3029377F700BDEFADE5E3
:10021000937606FF3D8ABA960CC34CC30CC74CC7F5
:100220004107E36BD7FE11E28280B306C3408A0622
:100230009702000096966780A6002307B700A306E2
:10024000B7002306B700A305B7002305B700A30432
:10025000B7002304B700A303B7002303B700A3022A
:10026000B7002302B700A301B7002301B700A30022
:10027000B7002300B700828093F5F50F93968500B1
:10028000D58D93960501D58D61B79396270097027A
:10029000000096968682E78086FA9680C1171D8FA9
:1002A0003E96E374C3F8A5B77300203001A07971BE
:1002B0008545114506D622D402C202C402C602C830
:1002C00002CA02CC02CE9123854537050020A92B16
:1002D00037140140C1472312F1004C008D4713052C
:1002E00004803EC402C6812E13050480C145292125
:1002F0009307C0033EC8930700083ECA85679387EB
:1003000007B03ECC0C08894701453ECE452C3777D7
:100310000040832707408545014593E74700232098
:10032000F740E92481450145C52CB250225445616E
:100330008280B777004003A747401367170023A2C6
:10034000E74001008280411106C619257165130539
:1003500005202525A93FB707002083A507073725D6
:100360000000130585C55D2D37250000130585C6E2
:10037000EF00607C7D3FFDBFB71702409843B70692
:10038000FFF841111367170098C3D84337060200DE
:10039000758FD8C39843B706F7FEFD16758F98C3BF
:1003A0009843B706FCFFFD16758F98C3D843B70670
:1003B00081FFFD16758FD8C39843B70600ECFD1674
:1003C000758F98C33707FF0098C723A6070202C49A
:1003D00002C69843C166558F98C3B71602401307EB
:1003E00000509C42F18F3EC6A24785073EC4B247EB
:1003F00081E7A247E397E7FEB71702409C431397B4
:10040000E7006357070685473EC632478547631FA7
:10041000F704B7170240D843B706C1FFFD16D8C38B
:10042000D843D8C3D84313670740D8C3D843758F80
:10043000D8C3D843B7061D00558FD8C39843B70615
:100440000001558F98C3984393166700E3DD06FEBD
:10045000D843B7160240719BD8C3D843136727000F
:10046000D8C32147DC42B18BE39EE7FE4101828085
:1004700002C661BF01A001A001A001A001A001A0CE
:1004800001A001A001A001A001A001A001A001A064
:1004900001A001A001A001A001A001A001A001A054
:1004A00001A001A001A001A001A001A001A001A044
:1004B00001A001A001A001A001A001A001A001A034
:1004C00001A001A001A001A001A001A001A001A024
:1004D00001A001A001A001A001A001A001A001A014
:1004E00001A001A001A001A001A001A001A001A004
:1004F00001A001A001A001A001A001A001A001A0F4
:1005000001A001A001A001A001A001A001A001A0E3
:1005100001A001A001A001A001A001A001A001A0D3
:1005200001A001A001A001A001A001A001A001A0C3
:1005300001A0970100209381E1331781002013016E
:1005400061AC171500001305257E970500209385E3
:1005500065AB1386018163FAC5008322050023A0E1
:10056000550011059105E3EAC5FE138501819385C8
:1005700041826377B500232005001105E36DB5FEC8
:10058000FD42739002BCFD4273904280B76200004E
:100590009382820873A0023097020000938202AA1D
:1005A00093E2320073905230EFF01FDD97020000AB
:1005B0009382A2D97390123473002030B776004032
:1005C000056783A7064079173317A7001347F7FF7E
:1005D000D0417D8F9C41D18F9045D18FD045D18F17
:1005E000B397A700D98F23A0F64082808547339523
:1005F000A70089C937770040832707405D8D2320F6
:10060000A7408280B777004003A707401345F5FF56
:10061000798D23A0A74082804111B777004002C6A0
:10062000938707403EC6B247A1073E952AC6B24708
:100630008CC3410182809C4513F7070113F8F70032
:1006400001C7D8413368E80083D5050013F7F50FDB
:1006500039C318418146854E3D4F930F8002930266
:100660008004214E3396DE00B3F8C50063111603F3
:100670009398260033131F011343F3FF3377E300EE
:10068000B318180133E7E800639FF70550C98506E2
:10069000E39AC6FD18C11307F00F6375B704544100
:1006A0002146854E3D4F930F800293028004414EB8
:1006B000B398CE0033F715016392E80213172600B2
:1006C00001173313EF001343F3FFB376D30033174F
:1006D000E800D98E639DF701232A15010506E31969
:1006E000C6FD54C18280E39457FA10C94DB7E39711
:1006F00057FE23281501DDB70CC982803717024049
:100700005C439146B18B6385D700A1466386D706CB
:10071000B7177A00938707201CC1371602405C4246
:1007200037070020130707009183BD8BBA9783C654
:1007300007001C41B3D7D7005CC15442A1829D8AF7
:10074000BA9683C60600B3D6D70014C55442AD820C
:100750009D8A369703470700B3D7E7005CC5584228
:100760003983937637001387418036970347070014
:10077000B3D7E7021CC982805C4354434167C983F5
:10078000F98E37F7FF1F0327C770BD8B8907131634
:10079000170163480600454601476392C702C947EF
:1007A00039A809476389E7023D476388E702414763
:1007B0006388E702454601476393C700C14785E662
:1007C000B746024083A60680C18A8DC6B7167A0056
:1007D0009386062025A00147D9B70547B547C5B779
:1007E0000147BD47E9BFB7160240D4421396E60061
:1007F000E35E06FCB7163D0093860690B387D702EA
:100800001CC101DF1C41858301BF99C53717024018
:100810001C4F5D8D08CF8280B7170240984F13455B
:10082000F5FF798D88CF828099C5371702405C4FDC
:100830005D8D48CF8280B7170240D84F1345F5FF32
:10084000798DC8CF828083560501F577FD17F58F26
:1008500083D66500397122DC06DED58F03D7C5004B
:100860002318F5008356C500FD779387379FF58FD2
:1008700083D645002A842EC6D58F83D68500D58F92
:1008800083D6A500D58F2316F50083574501C207EF
:10089000C18393F7F7CFD98F231AF5006808B93DC4
:1008A000B747014093870780B245631EF404A257FF
:1008B0008356C4006547B387E702C206C1869841E4
:1008C00063D5060406070356C4004206B3D7E70201
:1008D000130740064186B3D6E702B3F7E702920654
:1008E000635706028E0793872703B3D7E70213F7F0
:1008F0007700B367D700C207C1832314F400F25016
:10090000625421618280925765B70A076DBF9207D2
:1009100093872703B3D7E702BD8BD58FE9BF81C982
:100920008357C5000967D98F2316F50082800357C6
:10093000C500F977FD17F98FC5BF93F5F51F231291
:10094000B5008280035505006D8D3335A00082808F
:10095000B707002083A7070737177A001307072078
:10096000B3D7E70293F7F70F2389F1801307803E8F
:10097000B387E7022398F1808280797122D42A8498
:1009800011658545110506D64935930700202312C8
:10099000F100371501408D473EC44C00E147130577
:1009A00005803EC6493922C837440140B7070800D0
:1009B0000C08130504803ECC02CA231E01006135D9
:1009C000130504808545A13FB250225445618280C1
:1009D000011126CAB744014022CC4AC84EC606CEF1
:1009E000AE893289014493840480634A2401F24031
:1009F00062444A85D2444249B249056182809305E6
:100A000000042685813765DDB3878900838507006B
:100A100026850504C205C1810D37C1BF39713EDA93
:100A20002ED232D436D63AD842DC46DE9387818045
:100A300022CC804326CA06CEAA8409C41C4C99E362
:100A4000228515230C4454102686228536C6EF00D5
:100A50007016F2406244D24421618280011126CA9C
:100A60004AC806CE22CC4EC652C4AA842E8901C5DD
:100A70001C4D91E3CD299C4C804499E32685E521CA
:100A80009717000093878722631CF402C0408357A6
:100A9000C400A18BB1C71C48A1C7FD59294A1C44F9
:100AA00083450900FD17B1E91CC463DE07062286F1
:100AB000A94526857120FD576308F502294535A013
:100AC00097170000938787206314F4008044C1B710
:100AD000971700009387871BE31BF4FAC04445BFB8
:100AE000A2852685312A55D97D55F2406244D244EB
:100AF0004249B249224A056182801CC4050963D774
:100B00000700184C63CBE700638945011C4013873D
:100B1000170018C02380B70059B7228626850D20FC
:100B2000E31F35F7D1B71C401387170018C02947BA
:100B30002380E70061B793878180AA85884339BF06
:100B4000011122CC26CA4AC806CE4EC6AA842E89D6
:100B5000328401C51C4D91E339219717000093871A
:100B6000E7146319F406C0401C4C1CC48357C4002E
:100B7000A18BC9C31C48BDCF1C4808409379F90F0D
:100B80001379F90F1D8D5C486346F500A285268513
:100B9000652C2DE51C440505FD171CC41C4013875E
:100BA000170018C0238037015C486389A70083576A
:100BB000C400858B81CBA9476316F900A2852685E1
:100BC00061240DEDF24062444A85D2444249B24963
:100BD00005618280971700009387470F6314F40024
:100BE000804459B7971700009387470AE31EF4F62D
:100BF000C0449DBFA285268521203DDD7D59D9B702
:100C000041119387818026C2844322C44AC006C60C
:100C10002A892E8489C49C4C99E32685A926971796
:100C200000009387A708631CF402C0400317C400A8
:100C300093170701C18393F68700B5EE93F607017A
:100C40009DEEA5472320F900136707042316E4004F
:100C50007D55B24022449244024941018280971757
:100C600000009387A7066314F4008044C1B7971768
:100C700000009387A701E31BF4FAC04445BF918BA2
:100C80008DC74C5889C9930744046384F5004A858D
:100C9000352B232A04028357C4002322040093F730
:100CA000B7FD2316F4001C481CC08357C40093E70B
:100CB00087002316F4001C4881EF8357C4001307F4
:100CC000002093F707286385E700A2854A858521E0
:100CD0008357C40013F7170005C75C48232404009A
:100CE000B307F0401CCC1C480145A5F78317C4008E
:100CF00013F7070839DF93E707042316F40089BFC9
:100D0000898B014791E3584818C4F1BF83D7C500C8
:100D1000011122CC26CA06CE4AC84EC613F7870058
:100D2000AA842E8471EFD841634DE000B841634A34
:100D3000E0000145F2406244D2444249B2490561B3
:100D4000828058547DD703A904009396370123A0CD
:100D5000040063DD060670488357C400918B99C771
:100D60005C401D8E5C5899C33C401D8E5C540C50F9
:100D7000814626858297FD570357C400631DF50001
:100D80009440F54763E8D706B70740208507B3D7F7
:100D9000D700858BA5C31C48232204001CC09317D1
:100DA000370163D80700FD576314F5009C4091E3B9
:100DB00068C84C5823A02401ADDD93074404638424
:100DC000F50026852121232A0402A5B70C500146EF
:100DD000854626850297FD572A86E31FF5F69C4037
:100DE000A5DF75476385E70059476394E70423A0AF
:100DF000240181B7136707042316E4007D551DBF46
:100E000083A90501E38709F203A905008D8B23A0BF
:100E1000350133093941014791E3D84918C4E35AF0
:100E200020F11C540C50CA864E8626858297634951
:100E3000A0008357C40093E707042316F4007DBF86
:100E4000AA993309A940E1BF9C49B9CF011122CC2D
:100E500006CE2A8411C51C4D81E72EC62922B24533
:100E600097170000938787E4639BF5004C408397B6
:100E7000C50095C722856244F240056141BD9717C0
:100E800000009387A7E46394F5000C44CDB797174F
:100E900000009387A7DFE39CF5FC4C44C9BFF240F8
:100EA000624401450561828001458280411122C46E
:100EB00006C62A842316B5002317C5002320050083
:100EC00023220500232405002322050623280500EC
:100ED000232A0500232C0500214681451305C5055D
:100EE000EFF00FB2971700009387E7B35CD0971726
:100EF0000000938747B61CD497170000938787BAE2
:100F00005CD497170000938747BD00D01CD8B2402F
:100F100022444101828097050000938525F3A9A210
:100F2000411126C2130680069384F5FFB384C402E0
:100F30004AC02E8922C406C693854407252E2A84DA
:100F400001CD2320050023222501310508C4138685
:100F500084068145EFF0CFAA2285B2402244924414
:100F60000249410182801C4DADE3411106C622C4F5
:100F700097070000938767FA1CD59387C1809C432D
:100F80002324050423260504232805046314F500FF
:100F900085471CCD2A841D2848C02285052808C401
:100FA00022852D2048C44840014691450137084418
:100FB0000546A545E53D48440946C945C53D854723
:100FC0001CCCB2402244410182808280411193872F
:100FD000C18026C284434AC006C69C4C22C42A89CA
:100FE00099E326854937938484048044DC40FD17C7
:100FF00063D607009C40B9CF8440C5BF0317C40027
:1010000039E7C17785072322040623200400232221
:101010000400232404005CC423280400232A0400C1
:10102000232C0400214681451305C405EFF04F9D94
:10103000232A0402232C0402232404042326040468
:101040002285B24022449244024941018280130425
:10105000840671BF91454A85E13588C051FDB1478D
:101060002320F9000144E9BF797122D44AD052CC3F
:1010700056CA5AC85EC606D626D24ECE2A8AAE8A2E
:10108000130485040149054BFD5B09ECB250225461
:101090004A8592540259F249624AD24A424BB24BB3
:1010A00045618280044483294400FD1963D409000A
:1010B0000040E1BF83D7C400637BFB008397E4005B
:1010C00063877701A6855285829A3369A900938444
:1010D0008406E1BF1971A6DAAE848395E500A2DC2F
:1010E00086DE328463DC050083D7C40023A00600BB
:1010F00093F7070885E7930700401DA0300836C620
:10110000EF003023B246E34105FE7247BD67F98F19
:101110007977BA9793B717009CC2F1BF9307000481
:101120001CC0F6506654D65401450961828083D7AD
:10113000C500011122CC06CE26CA4AC8898B2E844E
:1011400089CF930774041CC01CC885475CC8F24053
:101150006244D24442490561828074003000AA840E
:10116000953FA2452A892685312201ED8317C400C7
:1011700013F7072069FFF19B93E727002316F4007C
:10118000C9B797070000938747D99CD48357C400F9
:1011900008C008C893E707082316F400A2475CC8F4
:1011A000B24791CF8315E4002685EF00301B01C9BB
:1011B0008357C400F19B93E717002316F40083576D
:1011C000C4003369F9002316240151B7DDC183A798
:1011D000C5FF411122C406C626C21384C5FF63D3CE
:1011E00007003E94AA84EF00501E938741819C43E0
:1011F00081EF2322040023AA81802244B240268565
:10120000924441016F00901C637EF4001440330748
:10121000D4006396E7009843DC43369718C05CC05F
:10122000D9BFBA87D84319C3E37DE4FE944333861C
:10123000D700631F86001040B29694C33386D70050
:10124000E31DC7FA10435843B29694C3D8C375B789
:101250006375C400B1479CC04DB71040B306C400CD
:101260006316D70014435843B29614C058C0C0C385
:1012700069B78280011126CA93843500F19806CEA1
:1012800022CC4AC84EC6A104B14763F3F404B1446A
:1012900063E2B4042A89EF00501393874181984395
:1012A0003A8439E0938781819C4391E781454A855F
:1012B000A92723ACA180A6854A858127FD596319FA
:1012C0003507B1472320F9004A85EF00301029A0E7
:1012D000E3D004FCB1471CC10145F2406244D24452
:1012E0004249B249056182801C40858F63CF070265
:1012F000AD4663F6F6001CC03E9404C031A05C40CD
:101300006313870223AAF1804A85EF00300C13058E
:10131000B4009307440061993307F5405DDF3A94C8
:10132000898F1CC05DBF5CC3C5B72287404095BF95
:10133000130435007198E30285FCB305A4404A8587
:101340006D2DE31C35FBB5BF1C46FD171CC663DACB
:101350000700184E63C5E700A9476394F5006FF0D6
:101360002FFE1C422E851387170018C22380B7005A
:101370008280011122CC26CA4AC84EC652C406CE6B
:101380002A89AE893284B304D6007D5A631494004E
:10139000014509A8834504004E864A857537050432
:1013A000E31645FFF2406244D2444249B249224A20
:1013B00005618280357122CD26CB4AC94EC706CF42
:1013C00052C556C35AC1DEDEE2DCE6DAAA89AE8433
:1013D0003289368401C51C4D91E3713697170000A0
:1013E0009387C78C639BF40C83A4490083D7C40004
:1013F000A18BF5C79C48E5C793070002A304F1023F
:101400009307000302D22305F10222C6930B500278
:10141000971A0000938A8A8D054C294B4A8483478A
:10142000040099C36390770FB30C2441638D0C00C3
:10143000E6864A86A6854E852D3FFD576306F51E36
:101440009256E69636D283470400638F071CFD57F9
:101450001309140002C802CE3ECA02CCA30901043B
:1014600082D483450900154656859927130419002F
:10147000C24759E913F7070109C713070002A30977
:10148000E10413F7870009C71307B002A309E104B9
:10149000834609001307A0026380E608F2474A84E6
:1014A000814625460347040093051400130707FDF2
:1014B0006379E60AB5CA3ECE85A8971700009387E0
:1014C000E7806395F40083A489000DB797070000B7
:1014D0009387C77BE39CF4F083A4C90001BFA68572
:1014E0004E85EFF0EFF109D97D55FA406A44DA44B0
:1014F0004A49BA492A4A9A4A0A4BF65B665CD65C64
:101500000D618280050421BF330555413315AC00C0
:10151000C98F3EC82289B1B73247930647001843A6
:1015200036C6634907023ACE034704009307E00238
:10153000631FF704034714009307A002631BF7021D
:10154000B2470904138747009C433AC663C10702A8
:101550003ECA35A83307E04093E727003ACE3EC89D
:10156000E1B7B387670385462E84BA9725BFFD5739
:10157000C5B7050402CA81468147254603470400D2
:1015800093051400130707FD6376E606F1F2834521
:1015900004000D46170500001305C575112D11CD6A
:1015A00097070000938707751D8D93070004B39775
:1015B000A700424505045D8D2AC8834504001946ED
:1015C0001705000013054573130914002304B10225
:1015D000C5233DC197F7FFFF9387C7A295E7424711
:1015E000B2471377071009CF91073EC69257D2979B
:1015F0003ED22DB5B387670385462E84BA97BDBF0B
:101600009D07E19BA107D5B7780097060000938658
:1016100086D626860C084E8597000000E70000005D
:10162000FD572A8AE314F5FC83D7C40093F7070417
:10163000E39C07EA125555BD780097060000938693
:1016400086D326860C084E85012AD9BF797156CAE1
:101650009C49BA8A984522D426D24ECE52CC06D680
:101660004AD05AC85EC6AA892E84B284368A63D309
:10167000E700BA879CC00347340419C385079CC0A0
:101680001C4093F7070281C79C4089079CC003292F
:10169000040013796900631A0900130B9401FD5BC0
:1016A0005C449840998F634CF9041C408346340491
:1016B00093F70702B336D000A5EB13063404D285A6
:1016C0004E85829AFD576303F5041C4011469840ED
:1016D000998B544481446397C700B384E64063D335
:1016E000040081441C4418486354F700998FBE9449
:1016F000014969047D5B63982405014509A8854675
:101700005A86D2854E85829A631E75017D55B250E8
:10171000225492540259F249624AD24A424BB24B85
:10172000456182800509ADBF3307D400130600036D
:10173000A301C7040347540493871600A2978906A0
:10174000A381E7049DBF85462286D2854E85829A75
:10175000E30E65FB050945B7797122D426D24AD03C
:101760004ECE06D652CC56CA5AC8B68983C6850113
:101770009307E0063289AA842E8413863504638099
:10178000F61E63E2D706930730066382F60A63ED1E
:10179000D700638A061E930780056386F616930AB0
:1017A00024042301D40469A8930740066386F60045
:1017B00093079006E395F6FE1C40084393F607084E
:1017C00093054500C1C21C410CC363D80700130731
:1017D000D002B307F040A301E4049706000093860B
:1017E0002652294765A0930730076382F61A63EFF4
:1017F000D7009307F006638FF60493070007E39082
:10180000F6FA9C4193E707029CC109A89307500789
:101810006382F60493078007E393F6F89307800743
:10182000A302F404970600009386C64EDDA01C4375
:10183000938A2504938647009C4314C32381F504AF
:101840008547ADA293F607041C410CC3BDDEC20759
:10185000C187A5BF0C401C4313F80508138547003A
:101860006305080008C39C4339A093F5050408C329
:10187000FDD983D707001307F006638AE60C9706A5
:1018800000009386E6472947A30104044C400CC49A
:1018900063C5050008406D9908C099E3B28A91CDEF
:1018A000B28AB3F5E702FD1AB69583C50500238019
:1018B000BA00B3D5E70263F2E70AA147631EF70057
:1018C0001C40858B91CB58401C4863C7E7009307A9
:1018D0000003A38FFAFEFD1A3306564110C84E8747
:1018E000CA867000A285268595337D5A6314450DFE
:1018F0007D55B250225492540259F249624AD24A5A
:10190000424B45618280A382D504970600009386EE
:10191000263F0C40084313F805081C4111056300DD
:10192000080208C313F7150001C793E505020CC0B0
:101930004147B9FB0C4093F5F5FD0CC0B1B713F866
:10194000050408C3E30008FEC207C183E1BF970690
:1019500000009386E63A214705BFAE8799B79441C8
:101960001C43CC4913F8060813854700630608009A
:1019700008C39C438CC301A808C393F606049C4388
:10198000F5DA2390B70023280400B28A89BF1C43EC
:10199000D04181459386470014C383AA070056852A
:1019A000012C01C53305554148C05C401CC8A3014A
:1019B000040435B714485686CA8526858299E309FA
:1019C00045F31C40898B8DE7B2474844E353F5F259
:1019D0003E8505B785465686CA8526858299E309E0
:1019E00065F1050A5C443247998FE345FAFEE9BF89
:1019F000014A930A94017D5BF5B7411122C42A8400
:101A00002E8523A0018206C63D24FD576317F500ED
:101A1000938701829C4391C31CC0B2402244410180
:101A20008280411122C42E848395E50006C645229A
:101A3000634905007C48AA977CC8B2402244410112
:101A400082808357C4007D777D17F98F2316F400B9
:101A5000EDB783D7C500011122CC26CA4AC84EC6AD
:101A600006CE93F70710AA842E843289B68991C7CF
:101A70008395E5008946014631228357C4007D776E
:101A80007D17F98F2316F4008315E4006244F240B9
:101A9000CE864A86B24942492685D24405613DA890
:101AA000411122C42E848395E50006C6E128FD5726
:101AB0000357C400631BF500FD77FD17F98F23164C
:101AC000F400B2402244410182808567D98F2316F9
:101AD000F40068C8FDB78395E50005A8411122C44C
:101AE0002A842E85B285368623A0018206C6EFE0C1
:101AF0003FEEFD576317F500938701829C4391C326
:101B00001CC0B240224441018280411122C42A8477
:101B10002E8523A0018206C6CD20FD576317F50050
:101B2000938701829C4391C31CC0B240224441016F
:101B30008280411122C42A842E85B28523A001828D
:101B400006C6D120FD576317F500938701829C4399
:101B500091C31CC0B240224441018280411122C481
:101B60002A842E8523A0018206C66520FD576317AF
:101B7000F500938701829C4391C31CC0B24022446C
:101B800041018280411122C42A842E85B285368685
:101B900023A0018206C66120FD576317F5009387D5
:101BA00001829C4391C31CC0B24022444101828007
:101BB00093F5F50F2A966314C5000145828083478B
:101BC0000500E38DB7FE0505FDB7828082804111D7
:101BD00022C42A842E85B285368623A0018206C6B9
:101BE000A920FD576317F500938701829C4391C399
:101BF0001CC0B2402244410182809307800523A08B
:101C0000F1827D5582809307800523A0F1827D5566
:101C100082809307800523A0F1820145828093078B
:101C2000800523A0F1827D5582809307800523A043
:101C3000F1827D5582809387C1819C4391C73E95F7
:101C400023AEA1803E858280938741823E9523AE5C
:101C5000A1803E858280000053797374656D436C6A
:101C60006B3A25640D0A0000547269616E676C65F9
:101C700020576176612047656E65726174696F6E89
:101C800020546573740D0000000000000000000087
:101C90000000000000000000000000000000000044
:101CA0000000000000000000000000000000000034
:101CB0000000000000000000000000000000000024
:101CC0000000000000000000000000000000000014
:101CD0000000000000000000000000000000000004
:101CE0000000000000000000232D302B2000000029
:101CF000686C4C00656667454647000030313233FA
:101D000034353637383941424344454600000000F7
:101D10003031323334353637383961626364656661
:041D200000000000BF
:101D2400000000000102030401020304060708097D
:101D340000000000A81C0000C81C0000881C000053
:101D4400000000000000000000000000000000008F
:101D5400000000000000000000000000000000007F
:101D6400000000000000000000000000000000006F
:101D7400000000000000000000000000000000005F
:101D8400000000000000000000000000000000004F
:101D940000A24A04020406081000002010000020DB
:00000001FF
