:100000006F10804313000000130000001300000075
:100010001300000013000000130000001300000094
:100020001300000013000000130000001300000084
:08003000130000007300100032
:1000380000000000000000006A0B00006E0B0000CA
:10004800000000007E130000000000000000000017
:100058008013000082130000000000000000000070
:100068008413000000000000861300000000000058
:10007800881300008A1300008C1300008E13000000
:1000880090130000921300009413000096130000D0
:10009800981300009A1300009C1300009E130000A0
:1000A8003A0C0000A2130000CE0B0000A6130000BB
:1000B800A8130000000C0000AC130000AE130000F1
:1000C800B0130000B2130000B4130000B613000010
:1000D800B8130000BA130000BC130000BE130000E0
:1000E800BA0B0000C2130000C4130000C6130000BE
:1000F800C8130000CA130000CC130000CE13000080
:10010800D0130000D2130000D4130000D61300004F
:10011800D8130000DA130000DC130000DE1300001F
:10012800E0130000E2130000E4130000E6130000EF
:10013800E8130000EA130000EC130000EE130000BF
:10014800F0130000F2130000F4130000F61300008F
:10015800F8130000FA130000FC130000AC0C0000B8
:10016800720C0000B20B000004140000061400001A
:10017800081400000A1400000C1400000E140000FB
:1001880010140000121400001414000016140000CB
:10019800181400001A1400001C1400001E1400009B
:1001A800201400002214000024140000261400006B
:1001B800281400002A140000E60C00002E14000089
:1001C800200D000032140000660D000036140000F7
:1001D8000000000000000000000000000000000017
:1001E8000000000000000000000000000000000007
:0801F8000000000000000000FF
:10020000397101436EC619A0397141536AC866CA73
:1002100062CC5ECE19A0397101535AD056D252D455
:100220004ED64AD826DA22DC06DE330161408282CD
:1002300041114AC026C222C406C68282B24D410183
:10024000024D924C224CB24B4101024B924A224A3F
:10025000B2494101024992442244B24041018280A4
:100260003D432A876373C3029377F700BDEFADE583
:10027000937606FF3D8ABA960CC34CC30CC74CC795
:100280004107E36BD7FE11E28280B306C3408A06C2
:100290009702000096966780A6002307B700A30682
:1002A000B7002306B700A305B7002305B700A304D2
:1002B000B7002304B700A303B7002303B700A302CA
:1002C000B7002302B700A301B7002301B700A300C2
:1002D000B7002300B700828093F5F50F9396850051
:1002E000D58D93960501D58D61B79396270097021A
:1002F000000096968682E78086FA9680C1171D8F49
:100300003E96E374C3F8A5B7EFF21FF0411185459F
:100310001305C003B719014002C202C402C6EF10A0
:100320009011930700200D49E1444C00138509808A
:100330007C824AC426C6EF10E0661144130A0040CE
:100340004C00138509802312410122C6EF108065FD
:100350004C001385098060824AC426C6EF10806471
:10036000A14A4C00138509802312510122C6EF10C7
:1003700060634C00138509C0231241014AC426C69C
:10038000056BEF102062930B0B804C00138509C0A6
:100390002312710122C6EF10E0604C0037150140B6
:1003A000231241014AC426C6EF10C05F4C00371526
:1003B00001402312710122C6EF10C05E4C003715B8
:1003C0000140231261014AC426C6EF10A05D4C0013
:1003D00013850940608222C6EF10C05C85474C003F
:1003E000371501407C824AC426C6EF10A05B8947BE
:1003F0004C00371501407C8222C6EF10A05A4C00F9
:100400003715014060824AC426C6EF10A0594C003F
:10041000371501402312510122C6EF10A058C147E1
:100420004C00371501407C824AC426C6EF10805725
:10043000930700024C00371501407C8222C6EF1062
:1004400060564101F5BBEFF23FDC79711306C00243
:1004500081454800313585450D4537040240EF1090
:10046000A07B13054404B7C40020EF10C00593849B
:1004700044F29C40374A0140C14A13094A804C006B
:10048000130C00088D6B130544043EC44AC256C6C3
:1004900062CC5ED402CA02CE02D002D202D6EF10E3
:1004A000401913058405EF100002DC404AC20569BB
:1004B00013090980930900024C00130584053EC40A
:1004C0004AC84ED202C6EF10C0160965EF10601F71
:1004D000130584058545EF10401905469305000C6A
:1004E00013050A80EF10901D13050408EF00B07D7E
:1004F0009C50374A0040130B4A404C001305040837
:100500003EC45AC256C662CC5ED402CA02CE02D0E3
:1005100002D202D6EF10E0111305C406EF00B07A44
:10052000DC504C001305C4063EC45AC24AC84ED221
:1005300002C6EF10001037050002EF1080181305F7
:10054000C4068545EF10601205469305000C13059F
:100550000A40EF10B0161305C401EF00D076BC407E
:10056000375A0040130B4A804C001305C4013EC4A7
:100570005AC256C602D2EF10C00B13050403EF0097
:100580009074FC404C00130504033EC45AC24AC890
:100590004ED202C6EF10E00913050002EF10601200
:1005A000130504038545EF10400C05469305000C28
:1005B00013050A80EF10901013058445EF00B0700A
:1005C000BC50130B4AC04C00130584453EC45AC2AC
:1005D00056C602D2EF10E00513050443EF00B06EDB
:1005E000FC504C00130504433EC45AC24AC84ED2C4
:1005F000370B001002C6EF10C00313050B20EF10DD
:10060000400C130504438545EF102006054693056D
:10061000000C13050AC0EF10700A13054444EF00E4
:10062000906A83A704084C00110A130544443EC491
:1006300052C256C602D2EF00D07F1305C441EF006C
:10064000906883A744084C001305C4413EC452C2BD
:100650004AC84ED202C6EF00D07D13050B02EF1040
:1006600040061305C4418545EF102000054693055B
:10067000000C37550040EF1070041305C446EF001E
:10068000906483A7040A372A0040130B4A804C0069
:100690001305C4463EC45AC256C602D2EF00707952
:1006A00013050448EF00306283A7440A4C00130589
:1006B00004483EC45AC24AC84ED202C6EF00707700
:1006C00037050012EF00F07F130504488545EF0061
:1006D000D07905469305000C13050A80EF10007EC3
:1006E00013050449EF00305E83A7040C130B4AC0C6
:1006F0004C00130504493EC45AC256C602D2EF004C
:1007000050731305044AEF00105C83A7440C4C009F
:100710001305044A3EC45AC24AC84ED2370B0020C1
:1007200002C6EF00107113052B00EF00907913053E
:10073000044A8545EF00707305469305000C1305C8
:100740000AC0EF10A0771305044BEF00D05783A722
:10075000040E4C00110A1305044B3EC452C256C687
:1007600002D2EF00106D1305044CEF00D05583A7A3
:10077000440E4C001305044C3EC452C24AC84ED22B
:1007800002C6EF00106B13050B20EF0090731305EA
:10079000044C8545EF00706D05469305000C372528
:1007A0000040EF10A071456161BCEFF27FA83704F3
:1007B00002404111054689451305440402C402C69E
:1007C000EF00F06B9307E0110949854428007C8411
:1007D0002305210126C6EF1060290546894513052A
:1007E0000408EF00D0699307101228007C842305C9
:1007F000210126C6EF108027054689451305C4014F
:10080000EF00F067F14728005C84EF1020260546D2
:10081000894513058445EF0090669307C0042800BE
:100820005C84EF10A0240546894513054444EF007D
:1008300010659307B00428005C84EF102023054660
:1008400089451305C446EF009063930720062800EE
:100850005C84EF10A0210546894513050449EF008B
:1008600010629307400628005C84EF1020200546A4
:1008700089451305044BEF0090609307600628003C
:100880005C84EF10A01E4101F1B2EFF2DF9841113C
:10089000A53C37C40020B7070020130444F2938717
:1008A000471C5CC0B71700209387079D1CC0B70486
:1008B000000893874115854511651CC4374A0140DE
:1008C00002C002C202C402C644C423280400232A70
:1008D0000400230C0400232E04007169EF10A035DE
:1008E00013090920B7090C008A8513050A804AC03C
:1008F0004EC402C223160100EF10404F13050A80B8
:100900008545EF10405AB7270020938707975CD0A2
:10091000B72700209387C7171CD0B72700209387DD
:1009200007178545370502001CD444D42328040248
:10093000232A0402230C0402232E0402EF10803128
:100940004AC0374900408A85130509404EC402C297
:1009500023160100EF108049130509408545EF106B
:100960008054B73700209387C7117CC0B747002059
:10097000938787923CC0B74700209387C7918545EE
:10098000370504003CC43759004064C423280404DC
:10099000232A0404230C0404232E0404EF10802BC8
:1009A0008A8513050980EF10604413050980854589
:1009B000EF10604FB75700209387878C7CD0B757D4
:1009C00000209387470D3CD0B75700209387870CB2
:1009D0008545370508003CD464D423280406232A1F
:1009E0000406230C0406232E0406EF10A0268A8595
:1009F000130509C0EF10803F130509C08545EF10AE
:100A0000804AB7670020938747072322F408B77707
:100A10000020938707882320F408B7770020938766
:100A200047878545370510002324F40823269408BA
:100A300023280408232A0408230C0408232E04086E
:100A4000EF1040218A8537550040EF10203A854548
:100A500037550040EF102045B78700209387078265
:100A60002322F40AB78700209387C7022320F40AC1
:100A7000B7870020938707028545130500042324C8
:100A8000F40A372900402326940A2328040A232A3B
:100A9000040A230C040A232E040AEF10A01B8A85E3
:100AA00013050980EF108034130509808545EF1088
:100AB000803FB79700209387C7FC2322F40CB79799
:100AC00000209387877D2320F40CB797002093871D
:100AD000C77C8545130500082324F40C2326940CB9
:100AE0002328040C232A040C230C040C232E040CAE
:100AF000EF1040168A85130509C0EF10202F13054B
:100B000009C08545EF10203AB7A700209387877763
:100B10002322F40EB7B70020938747F82320F40E62
:100B2000B7B70020938787F7854513050010232466
:100B3000F40E2326940E2328040E232A040E230CDD
:100B4000040E232E040EEF10E0108A853725004096
:100B5000EF10C029854537250040EF10C034EFF075
:100B60009F8EA13141016FF04FEE7300203037A509
:100B700000001305C506EF80A035EF10203FAA85C1
:100B800037A5000013050508EF80E022EF10603E56
:100B9000AA8537A5000013050509EF80C021EF10D5
:100BA000A03DAA8537A500001305050AEF80A02007
:100BB00001A0EF40E078730020302945EF4050035A
:100BC000854537050040EF10A021730020300965EE
:100BD000EF00F03105C53705024013054504814596
:100BE000EF00B028B7C70020938747F2982F23AEB5
:100BF00007000965050798AFEF001030730020303B
:100C000037050002EF00B02E1DC537050240130561
:100C100005088145EF007025B7C70020938747F28C
:100C200003C7870323AE0702370500020507238C9D
:100C3000E702EF00702C7300203013050002EF0074
:100C4000102B15C53705024071058145EF00F021D5
:100C5000B7C70020938747F203C7870523AE070471
:100C6000130500020507238CE704EF00F02873004A
:100C7000203037050210EF0090271DC537050240D0
:100C8000130585458145EF00501EB7C700209387A7
:100C900047F203C7870723AE07063705021005078B
:100CA000238CE706EF005025730020303725001015
:100CB000EF00F0231DC5370502401305454481456B
:100CC000EF00B01AB7C70020938747F203C7870920
:100CD00023AE0708372500100507238CE708EF002F
:100CE000B0217300203037052010EF0050201DC5C3
:100CF000370502401305C5468145EF001017B7C7F9
:100D00000020938747F203C7870B23AE070A3705F6
:100D100020100507238CE70AEF00101E7300203017
:100D2000411122C63704002013052400EF00301CB7
:100D30001DC537050240130505498145EF00F01236
:100D4000B7C70020938747F203C7870D23AE070C70
:100D5000130524000507238CE70CEF00F01932443B
:100D6000410173002030411122C6370400201305D1
:100D70000420EF00D0171DC5370502401305054BB1
:100D80008145EF00900EB7C70020938747F203C755
:100D9000870F23AE070E130504200507238CE70EEB
:100DA000EF0090153244410173002030EFF24FC83C
:100DB00079719307005F3ECE930700323ED085677E
:100DC0009387871F3ED2A9472A843ED46808930799
:100DD000B0023ED62EC632C436C2EF4060509246B4
:100DE0002246B2452285EF40E03F45616FF08FC655
:100DF000EFF20FC40145EF00506D4145EF00D06A9E
:100E00003565EF00706B2D45EF00B0660545EF00CE
:100E1000D06B13054006EF10000F1305D003EF0051
:100E2000D06519C585450545EF00105F6FF08FC28D
:100E30001305401FCDB7EFF2AFBF41118545054502
:100E400002C202C423160100EF00D06089679387B5
:100E5000F7C13EC24C0093073006370500403EC440
:100E6000EF00D06A0546854537050040EF00307633
:100E7000854537050040EF00107485453705004073
:100E8000EF001076B7E700E0130700F82386E7428B
:100E9000056723A2E71041016FF0CFBBEFF2AFB7B8
:100EA00039712A8A1306C00381454800EFF04FBB11
:100EB000B707002083A7070701443ED883D7618185
:100EC0003ED48D473ED08567938707C83EC893843C
:100ED0008186A14913878181138901871E230345D8
:100EE00009004C00938617003ED62695B3078A006A
:100EF00016A33EC6EF404056834709000504A69757
:100F00008823EF40B064E31734FD21616FF0EFB345
:100F1000EFF26FB093F7450041112E89B1CB8145B7
:100F2000AA89EF401010B7C70020938747F21394A7
:100F300059003E94043C1C2C2AC61147B387F44048
:100F40006348F7029547B3F4F402930700320C406C
:100F500070004E85B387F402BE95EF40406F09E9FB
:100F60001C448604BE94B2479EA01C3C85071CBC52
:100F700013790904630609001305800CEF00B078AB
:100F800041016FF08FACEFF2AFAAEF40503B937787
:100F900045002A8499C3EF40D05A41880DC00144CE
:100FA00021499374F40F2685EF40B03AAA8519C100
:100FB0002685B93F050442044180E31424FF6FF005
:100FC0006FA9EFF26FA4B704024037CA0020296B63
:100FD00093094AF2014913044AF2938A4404130B19
:100FE0000B0B938B044B138C0449938CC446138DC9
:100FF000444483A7C901A9EB83C7890103C79901A9
:101000006304F7041547B3F7E7029306F9FF1307E4
:10101000003293F6F60F19463387E70286076366B8
:10102000D6008A06DA969442828683264AF285455D
:101030005685369723A6EA001844BA979E2323A222
:10104000FA0085475CCC152505091379F90FA147EE
:1010500093890902E31FF9F86FF08F9E14501385EE
:101060000408369758C51854BA979E235CC1854723
:101070005CDC8545C9BF34401385C401369758C52B
:101080003844BA979E235CC185477CCCDDB7345089
:1010900013858445369758C53854BA979E235CC14A
:1010A00085477CDCF9B78326040885456A85369731
:1010B0002326ED0003278408BA979E232322FD00F0
:1010C0008547232EF40841B78326040A85456685A3
:1010D000369723A6EC000327840ABA979E2323A2FF
:1010E000FC008547232EF40AB9BF8326040C8545EE
:1010F000628536972326EC000327840CBA979E233B
:101100002322FC008547232EF40C35BF8326040ED2
:1011100085455E85369723A6EB000327840EBA9794
:101120009E2323A2FB008547232EF40E29BFEFF256
:101130008F8E411137C40020296A856902C61304C5
:1011400044F20149994A370B0240130ACA0C9389A9
:1011500009809307F9FF93F7F70F63E6FA008A0710
:10116000D2979C4382878327CB0566246386F40647
:1011700058489D8C7EA41C4893F4F47FBA9444C8CC
:101180009D8C63F7990023280400232A04008144DE
:101190001C4893F7F77F3387F94063F3E400268711
:1011A0003AC601CF4C4070004A85BE95EF401034DE
:1011B00009E51C483247BA971CC8B247638E9700AE
:1011C0004C409D8C70004A8526C6EF40303209E5C0
:1011D0001C483247BA971CC805091379F90FA14773
:1011E00013040402E317F9F641016FF00F86832719
:1011F0000B07A5BF83274B038DBF83274B43B5B791
:1012000083270B429DB783274B4885B783274B4ADB
:10121000A9BF83274B4C91BFEFF28F810111EF00E3
:10122000304C6800EF00F00EE1363131138501815A
:10123000EF30406AEFF06FE537A500001305851029
:10124000EF00B069938601811386C1809385418048
:1012500013858180A13E11C501A013054006EF0052
:10126000904AEF40102E11896DD937850120130562
:10127000C58A2D31EF40D012EF40300911C1213322
:1012800089337535C5BFB71702409843B706FFF8D5
:1012900041111367170098C3D84337060200758FB2
:1012A000D8C39843B706F7FEFD16758F98C39843C9
:1012B000B706FCFFFD16758F98C3D843B70681FFAC
:1012C000FD16758FD8C337079F0098C702C402C6A2
:1012D0009843C166558F98C3B71602401307005054
:1012E0009C42F18F3EC6A24785073EC4B24781E7C4
:1012F000A247E397E7FEB71702409C431397E70026
:10130000635B070685473EC6324785476313F7068A
:10131000B7170240D843B706C1FFFD16D8C3D8435C
:10132000D8C3D84313670740D8C3D843758FD8C3F1
:10133000D843B7062900558FD8C3371702401C433E
:10134000B7060001D58F1CC3B71702409843931608
:101350006700E3DD06FED843B7160240719BD8C391
:10136000D84313672700D8C32147DC42B18BE39EE3
:10137000E7FE4101828002C641BF01A001A001A099
:1013800001A001A001A001A001A001A001A001A055
:1013900001A001A001A001A001A001A001A001A045
:1013A00001A001A001A001A001A001A001A001A035
:1013B00001A001A001A001A001A001A001A001A025
:1013C00001A001A001A001A001A001A001A001A015
:1013D00001A001A001A001A001A001A001A001A005
:1013E00001A001A001A001A001A001A001A001A0F5
:1013F00001A001A001A001A001A001A001A001A0E5
:1014000001A001A001A001A001A001A001A001A0D4
:1014100001A001A001A001A001A001A001A001A0C4
:1014200001A001A001A001A001A001A001A001A0B4
:1014300001A001A001A001A097F1FF1F93818143AA
:1014400017F10120130101BC17950000130585DF7A
:1014500097F5FF1F938505BB1386818663FAC50048
:101460008322050023A0550011059105E3EAC5FE7E
:101470001385818697D501209385C5A56377B5002F
:10148000232005001105E36DB5FEFD42739002BCFB
:10149000FD4273904280B76200009382820873A07D
:1014A000023097F2FFFF938262B993E232007390A9
:1014B0005230EFF05FDD97020000938222D67390E6
:1014C0001234730020301C4141677917F98F1CC119
:1014D000232005002322050023240500B70702402E
:1014E00023260500138787006317E500D843136799
:1014F000F700D8C382801387C7016316E500D8437D
:101500001367070FFDB7138707036318E500D84378
:101510008566938606F0558FE9BF138747046315E8
:10152000E500D843BD66C5BF138787056316E50090
:10153000D843B7060F00C5B71387C7066316E50083
:10154000D843B706F000C1BF138707086316E5004C
:10155000D843B706000FC1B7138787406319E5006A
:1015600003A747401367F70023A2E7408280138751
:10157000C7416317E50003A747401367070FEDB79F
:1015800093870743631BF500B707024003A7474053
:101590008566938606F0558FC1BFB7070240138753
:1015A00047446316E50003A74740BD66EDB71387C0
:1015B00087456317E50003A74740B7060F00E1BF63
:1015C0001387C7466317E50003A74740B706F00037
:1015D000D9B7138707486317E50003A74740B70645
:1015E000000F55BF138707496319E50003A7474D4F
:1015F0001367F70023AAE74C82801387074A631713
:10160000E50003A7474D1367070FEDB71387074B97
:101610006319E50003A7474D8566938606F0558F4D
:10162000D1BF1387074CE319E5FC03A7474DBD66FF
:10163000FDB71C4161773D0794517D8F9C45D58F47
:101640009449D58FD449D58F944DD58FD44DD58F0E
:10165000D451D58F9455D58FD98F1CC1DC455CC131
:101660009C411CC5DC415CC582801C4189C593E757
:1016700017001CC1828041677917F98FDDBF1C41BB
:1016800001C6DD8D0CC1828093C5F5FFFD8DDDBFE8
:101690009317350063DA0700B707024083A70740B6
:1016A0007D8D3335A00082809317250063D7070016
:1016B000B707024083A7074DE5B7B70702409C4331
:1016C000C5B79317350063D70700B707024023A2B9
:1016D000A74082809317250063D70700B707024011
:1016E00023AAA74C8280B7070240C8C38280EFE2DA
:1016F0003FB4793F6FE01FB6EFE29FB3D9376FE099
:101700007FB5EFE2FFB285451165D52381451165AF
:10171000F92B6FE03FB4930700043CC1930700022C
:101720007CC1930700087CD123200500B707000483
:101730002322050023240500232605002328050075
:10174000232A0500232C0500232E05002320050253
:10175000232205022324050223260502232805024D
:10176000232A0502232C0502232E05022324050427
:101770002326050423280504232A0504232C050415
:10178000232E05042320050623240506232605060B
:1017900023280506232A0506232C0506232E0506E5
:1017A0002320F508B70700022322F5082322F50AB3
:1017B000B7070200370720002326F50A9307001019
:1017C000232405082326E50823280508232A0508DD
:1017D000232C0508232E05082320050A2324050AA7
:1017E0002328F50A232A050A232C050A82804111A1
:1017F00002C6B78602409C4A41672E057D17F18BD1
:10180000798D9A055D8D93F5057CC98D93E515005D
:10181000B70750008CCAF917324705073AC6984AED
:10182000058B01C73247E3F9E7FE3247B70750009F
:10183000FD1701456307F700B7870240C84B420513
:101840004181410182804111B787024002C6984B15
:10185000C166FD162E05758D718B9A05598D93F510
:10186000057CC98DD0CB93E535008CCBB70705003F
:10187000B7860240F917324705073AC6984A058BE2
:1018800001C73247E3F9E7FE3245B7070500FD1708
:101890003335F5004101828023ACA18601479307CF
:1018A0000501B70810401303005F130EF6FF2A88E6
:1018B0006316C700B797024088CB8280B3066702E1
:1018C00023A817FFAE9623ACD7FE6373C7013E88EB
:1018D00023AE07FF0507C107D9BF916623AAA186DA
:1018E000014793070501370300809386065F130EB7
:1018F000005F930EF6FFAA886316C700B7970240F1
:10190000C8C782803308C70323A867FE23AAD7FE6F
:101910002E9823AC07FF6373D701BE8823AE17FF51
:101920000507C107C9BF379702401C4393E717005B
:101930001CC38280B7970240C8CB82803797024091
:101940001C4FB7061000D58F1CCF8280EFE25F8E50
:10195000378402401C4093E787001CC0C5371C40F9
:10196000896693E747001CC0B7970240984F558F90
:1019700098CF984F1367270098CF6FE0BF8D99C518
:10198000379702405C4F5D8D48CF8280B797024009
:10199000D84F1345F5FF798DC8CF828083A7818703
:1019A000884782809C4513F7070113F8F70001C7A9
:1019B000D8413368E8008E2113F7F50F39C3184179
:1019C0008146854E3D4F930F800293028004214E45
:1019D0003396DE00B3F8C500631116039398260012
:1019E00033131F011343F3FF3377E300B3181801D8
:1019F00033E7E800639FF70550C98506E39AC6FD03
:101A000018C11307F00F6375B70454412146854E82
:101A10003D4F930F800293028004414EB398CE0055
:101A200033F715016392E8021317260001173313E9
:101A3000EF001343F3FFB376D3003317E800D98EDA
:101A4000639DF701232A15010506E319C6FD54C15C
:101A50008280E39457FA10C94DB7E39757FE2328C5
:101A60001501DDB70CC982804CC982809387C1877C
:101A70009443182181E63C21920721A8944305460E
:101A8000639FC6023C21103192076314D60093E78E
:101A900007F8B7E600E093F7F70FBA962380F64011
:101AA0008546935757003397E6005441A5C2938764
:101AB00007048A07B7E600E0B69798C382808C4394
:101AC00089466391D50214313C216365D6008A06AC
:101AD000B6975DB79386E6038A06B69793F7F70F36
:101AE000920775B790438D46631CD60014313C2194
:101AF0006364D6008606E9BF9386C6078606F1BFF3
:101B000094439147E39EF6F81C31BDB793870706CF
:101B10004DB7371702405C439146B18B6385D700C0
:101B2000A1466382D706B7177A00938707201CC1A6
:101B3000371602405C4237070020130707009183E5
:101B4000BD8BBA9794231C41B3D7D7005CC15442D4
:101B5000A1829D8ABA969422B3D6D70014C5544266
:101B6000AD829D8A36971823B3D7E7005CC55842EB
:101B70003983937637001387018236971823B3D7BA
:101B8000E7021CC982805C4354434167C983F98ED4
:101B900037F7FF1F0327C770BD8B8907131617017F
:101BA00063480600454601476392C702C94739A802
:101BB00009476389E7023D476388E7024147638835
:101BC000E702454601476393C700C14785E6B7462C
:101BD000024083A60680C18A8DC6B7167A00938616
:101BE000062025A00147D9B70547B547C5B7014726
:101BF000BD47E9BFB7160240D4421396E600E35E44
:101C000006FCB7163D0093860690B387D7021CC129
:101C100005D31C41858321BF99C5371702405C4B12
:101C20005D8D48CB8280B7170240D84B1345F5FF36
:101C3000798DC8CB828099C5371702401C4F5D8DC6
:101C400008CF8280B7170240984F1345F5FF798D72
:101C500088CF828099C5371702405C4F5D8D48CF91
:101C60008280B7170240D84F1345F5FF798DC8CF52
:101C70008280B7170240E8B382809357550005472A
:101C80006399E700B71702409C4333D5A700058945
:101C9000828009476396E700B71702409C53F5B767
:101CA000B7170240DC53D5B7371702405C5793F79C
:101CB000F7F05D8D48D78280B7160240DC56457735
:101CC0007D17F98F5D8DC8D6828009C9371702400C
:101CD0001C43B7060010D58F1CC38280B716024084
:101CE0009C42370700F07D17F98F9CC2828099C50E
:101CF000371702401C575D8D08D78280B717024006
:101D000098571345F5FF798D88D782801E21373784
:101D10000140930607C0C207C1836300D504B7061C
:101D20000040630CD502938606406308D502B716BF
:101D30000040138606806302C502938606C0630EC8
:101D4000D50013070740630AE500375701409306A3
:101D500007C06304D5006316E500BA2193F7F7F8CE
:101D6000D98F37170040630CE5001307074063085D
:101D7000E50093F7F7CFFA21C207C183D98F1EA1DF
:101D8000DE215EB59E211EB5B7370140138707C01F
:101D9000630EE50093870740630AF500B7570140DB
:101DA000138707C06304E5006314F5009C251EB982
:101DB00085475EA982801E2189C593E717001EA171
:101DC0008280C207C183F99BC207C183CDBF5E2554
:101DD00001C6DD8D4EA5828093C5F5FFFD8DDDBF6B
:101DE00093C5F5FFC205C1810EA98280EFE24FC401
:101DF0001629F577FD17F58FF621DA257971D58F3C
:101E00001EA95625FD779387379FF58FD6212A8403
:101E10002EC6D58F9625D58FB625D58F5EA55E2982
:101E2000C207C18393F7F7CFD98F5EA96808D53170
:101E3000B747014093870780B245631AF404A2575D
:101E400056246547B387E702C206C186984163D22C
:101E50000604060752244206B3D7E70213074006DA
:101E60004186B3D6E702B3F7E7029206635506024E
:101E70008E0793872703B3D7E70213F77700B3677B
:101E8000D700C207C1831EA445616FE0AFBC925763
:101E900045BF0A07C1B7920793872703B3D7E70265
:101EA000BD8BD58FF9BF91C55E250967D98F5EA51A
:101EB00082805A25F977FD17F98FD5BF5E2901C6B3
:101EC000DD8D4EA9828093C5F5FFFD8DDDBF93F5B5
:101ED000F51F4EA182800A216D8D3335A0008280CE
:101EE00083A7C18137177A0013070720B3D7E7020A
:101EF00093F7F70F2381F1881307803EB387E7023A
:101F00002390F1888280B7F700E0414798C303D758
:101F1000018881463306A70290CBD4CB9843136740
:101F2000170298C3D843058B75DFD843799BD8C374
:101F30008280EFE24FAEB7440140AE89328901445E
:101F400093840480634524014A856FE00FB09305B4
:101F500000042685493765DDB3878900838507003E
:101F600026850504C205C1819D37E9BF732510345C
:101F70008280732520348280732530348280EFE2A2
:101F80008FA9AE894E85FD55EF009076B7E7012009
:101F900083A5C7E6C16705459386818A9442138667
:101FA000818AA9EE37050120CE840144930745CCF0
:101FB0002A89B1ECB7E70120938747D99843854632
:101FC0000A073E9754C39843050798C3984363F4A0
:101FD000E60023A007009307C003A2856374F40002
:101FE0009305C003C205C181130549CCEF205022DF
:101FF00085454E85EF00D06F014501A8FD1799C3B7
:10200000E39CA5F82320060051556FE00FA403DAE6
:10201000A400CC403E8552945286EF60704E42043C
:102020004180B3074501844069B7EFE26FA099474B
:102030002305F50283A5C18B2A8481471947B386FE
:10204000F5009022B306F4008507A385C602E39845
:10205000E7FEB7E70120938747D923A0070023A213
:1020600007003707012023A40700130747CC37E5F3
:102070000120D8C7930445CC1306000D81451305F4
:1020800045CC98CBEFE0CF9D854723A6F40C930772
:10209000C05D1EB493073003A308F40223A4018A91
:1020A0006FE04F9BEFE2CF9837E70120130707DE81
:1020B00058D11D67130757E63AB937670000130771
:1020C000273B58C9372700001307E7F718CD232E01
:1020D0000500A13F01456FE0EF97EFE26F95AA85FC
:1020E00037E50120130505DEEF60505F6FE08F9646
:1020F000EFE28F9137E40120930744CC83A7870C4C
:1021000063820714938781899823B7E600E0096604
:10211000050798A323A4C618130444CC8327840C72
:1021200023A4C61093F7F70F638E071023A4C618D5
:102130008327040C2A89C1078A07A297984383271B
:10214000040C938707028A07A29703AA0700832734
:10215000040C8A07A29783AA070023A4C610894704
:1021600093FAFA0F6392FA0E93170701C183814421
:10217000ADC78507939507010D46C1810D45EF0059
:10218000F062AA8461C1FD55EF009056A689194BF3
:10219000A54B7D1B137BFB0F63060B0A03D6A9001F
:1021A00003A54900D285EF60B0358327040C8A0768
:1021B000A29723A007008327040C85072320F40C93
:1021C0008327040C63F4FB002320040C83D7A900AD
:1021D00083A909003E9AE39E09FAB7E700E0096780
:1021E00023A4E7180327840C9387418A25C3094752
:1021F000639EEA04238007008327840CFD172324B1
:10220000F40CB7E700E0096723A4E71085CC854507
:102210002685EF00F04DDC40C837FC27A2075D8D16
:10222000112C9307058091C7856793876780631892
:10223000F50083270901CA852685829701C5268571
:10224000EF00F0516FD0DFFF814441BF9823A546D6
:1022500005071377F70F63E4E60098A35DB72380C3
:1022600007008327840CFD172324F40C8327840C98
:10227000C9FB8327440C2320F40C61B7EFD2BFF9CC
:10228000B7E701201384C18B938787E51CC0B7E7AC
:1022900001209389418B9387C7E423A0F900B7E716
:1022A00001209384018B938707E59CC0B7E7012049
:1022B0004111938747E51389818B2320F90002C2DE
:1022C00002C402C6EF00807E83A5090011464800C3
:1022D000EF6010238325090011462800EF6050228B
:1022E0008C4011466800EF60B021B7E401200C403B
:1022F000138584DA19461305B502EF607020138543
:1023000084DA23AC018C23AA018CEF00903D37685E
:102310000000B7270000740030004C001308A84FDD
:102320009387470A0147138584DAEF00103641018D
:102330006FD0BFF1EFD2DFEF83A7018A41113EC614
:10234000EF30302011896304050E9387C18AB246AD
:102350009843998E37E70120032787E60583637644
:10236000D700324798C3EF10005F1384C189B2478A
:102370001840998F1307703E6375F7000922B24722
:102380001CC093874188B2469843998E056713070E
:1023900077386376D700324798C3EF305047B7E7B6
:1023A0000120938747EAD84711CF13874189B24666
:1023B0001043918E1306703E6376D600B246DC431E
:1023C00014C3829737E401208327C4CA1304C4CA04
:1023D00095CF9387018932479443158F9306F07CFC
:1023E00063F7E600324798C31C4891C382979387EE
:1023F000C188B2469843998E3D671307F7A5637766
:10240000D700324798C35C4891C3829793878188ED
:1024100032479443158F9306401F63F4E60032471A
:1024200098C33245EF2090123245EF2050164101FB
:102430006FD05FE29317850021815D8D4205418158
:1024400082809317850021815D8D420541818280C4
:102450001357850193178501D98FB706FF0013170E
:102460008500758FD98F4167130707F02181798D1A
:102470005D8D8280EFD2DFDBE13F6FD0BFDDEFD239
:10248000BFD803A4418CC544014B1389418C19E08A
:102490006FD01FDBFD1493F4F40FFDD87C3C032CAC
:1024A000040091C7FD177CBC228B6284CDB78329C1
:1024B0004400814A03A549005C315821A207D98F05
:1024C00085EF18311C21514622075D8F3C21930571
:1024D0008400C2075D8F3C31E207D98F5CC0EF609A
:1024E000300285454E85EF4060344E85EF007045E3
:1024F000AA8A4E85EF00B02683294400639609021C
:10250000032709001C40631CE4042320F900A28572
:102510001545EF00F0071387018C1E235A84B38AF8
:1025200057412310570149B703A749004E851C3373
:10253000034A0700A207B3E74701034A2700420AFC
:10254000B367FA00034A3700620A336AFA00EF0001
:10255000503FAA9A4E85EF009020D28945B723209C
:10256000FB0075B7EFD25FCA44412A899C308820AE
:10257000A2075D8DF93519811375C503D147631F16
:10258000F524FC30E820A2075D8D653DBC302A8B28
:10259000A820A2075D8D75359C30AA8C8820A207E3
:1025A0005D8D45352A8C4A85EF00B039B7E70120AB
:1025B00083A707EA03D7018C2A8D8D832A97BD8BC9
:1025C0009389018C63CCE72003A4418C814A138A50
:1025D000418C1DE81545EF00A0792A846300052091
:1025E0007146814513054400EFD09FC78D477CBCE1
:1025F00083270A0023208A001CC05146A6851305A4
:102600008400EF60E06F8DACD834DC2422075D8F4E
:10261000FC24C2075D8FFC34E207D98F584863164B
:10262000F70298389C2822075D8FBC28C2075D8F6F
:10263000BC38E207D98F184C6319F700DC30D4207E
:102640005A24A207D58F6305F720A28A004051B70C
:10265000CC4203C8550003C3450022083368680014
:10266000637C060D93D5860094A38CB393D50601A5
:10267000E182ACA3B4B3630D072A74336C23A206C2
:10268000CD8E6364D6146362A81493568900230028
:10269000270114B3935609011359890134A3A301E7
:1026A0002701782C014B058B630E0718638C0818E3
:1026B00058404443D830D4202207558F631407185C
:1026C00094339823A206D98EB8234207D98EB83303
:1026D0006207558F61E75E2C03C904005146D1079C
:1026E0005EAC9C30930584002685A207B3E72701E2
:1026F00003C924004209B367F90003C93400620921
:102700003369F900EF60C05F4A2CEFF0BFD2A8A098
:102710002181A8B023830400A3830400238504003F
:10272000A3850400D1452685EF40E028A8A4218197
:10273000A8B4032B4400D5A063090609F43103C3F0
:102740006500A206B3E666006361D60801CB742378
:1027500078332207558F6303E8008148983194212C
:102760002207558FB421C206558FB431E206D98EA7
:102770002E875DAA935689002300270114B3935630
:1027800009011359890134A3A30127017423783364
:102790002207558FE307E6F0814821B75443EC2325
:1027A000F833DC32D0222207A2074D8FD18F631A73
:1027B000F7029C329822A207D98FB8224207D98FFC
:1027C000B83262075D8FB68731B74A85EF00701760
:1027D00083D709003385A7402390A9004A85EF00DD
:1027E0000078014B85A0B1554A8583244900EF004C
:1027F0002070CA855A85EF0090169C3003C90400EA
:10280000A207B3E7270103C924004209B367F9000F
:1028100003C9340062093369F900E31609FC032790
:102820000A001C406313E4022320FA00A285154528
:1028300085235A85EF00F01083D709003385A74020
:102840002390A9005A856FD0BF9F23A0FA00F9BF3B
:10285000FC30E820896BA2075D8DEFF09FBEFD1B69
:10286000337575014205418101E96A24EFF07FBDAE
:1028700033757501E31305D883D709003E9D239076
:10288000A901FC30E820A2075D8DEFF09FBB9317F4
:10289000250163C2070213153B017C2C4D810E05F7
:1028A000135C6C006695137CCC0393E7170033052B
:1028B00085417CAC4AAC83244900BC30A820A207E7
:1028C0005D8DEFF01FB89C302A8B8820A2075D8DAC
:1028D000EFF03FB7FC30AA8BE820A20793DB6B0038
:1028E0005D8DEFF01FB64E054D8113163500330593
:1028F000CB0013FBCB038327490033056541420519
:102900001357860041815440D8B313578500F8B35C
:1029100023800700A380070023810700A38107000D
:10292000D0A3E8A385480147E39406D2E31407E463
:1029300023222401BDB3EFD2BF8C032C450001112B
:1029400032CA03477C00AA8D03456C00220783DB53
:102950008502598DAE8CEFF0DFAE8966B377D50076
:10296000138ACBFEA146334ADA0283D48D0009676D
:102970007D173EC63379E500B1144209C2041359EC
:102980000901C1800144514D3ACC420A135A0A014F
:1029900093163A0093970601C1833EC89387DBFEE6
:1029A0003ECE89E4014505616FD05F89E247A68A82
:1029B000337BF900B24733EB6701F24763C6F4009B
:1029C000C24A8967336BFB000146D1450945F92BA3
:1029D000AA8929C948415146E285EF60603203A6C1
:1029E0004D0083AB49006A9623A2CD0003D6AD000B
:1029F000B306A6412395DD00568D63070D0403D46D
:102A0000AD0063738D006A844204418001E483ADAC
:102A10000D00E5B7814509460D45492BAA8509E515
:102A20004E85352B7D5541B703A64D0002A522A545
:102A300050C14E85EF00A072B3068D40139D060174
:102A4000135D0D01E3150DFC5A85EFF0BF9E238346
:102A5000AB002181A383AB0013854A01420541816C
:102A6000EFF05F9D2381AB002181A381AB00D145B5
:102A700023850B00A3850B005E85EF30D07303A781
:102A80004C0152462385AB002181A385AB00CE8546
:102A900066850297B384544152994E85C204420917
:102AA0007D29C18013590901228DE5BDEFD24FF870
:102AB0001128BD24B7E7012083A7C7EA91C38297F5
:102AC0006FD04FF93747012013077796719B23A6E4
:102AD000E18CB7E7012083A787E9231107008D0761
:102AE000F19B93960701C182BA9716A323020700B0
:102AF00023A8F18C0546D0A396A3B6A323A4E18C0A
:102B0000828049C183A7C18C636EF50683A5018DC0
:102B1000637AB50683A6818C130685FF230E05FE16
:102B20001387818C6373D60010C3835685FFBE96CE
:102B30006304D60203C8460063100802638ED50002
:102B40000C436393B60010C38E22231CB5FE96225D
:102B5000B305F640BE96AEA28355A5FFB386B70077
:102B60006302D60203C84600631E0800032807005C
:102B70006313060114C3035785FF9AA2035785FF09
:102B8000BA97AEA382808D05C205C181F199C205B5
:102B9000C1813147AE8763F3E500B14737E70120D4
:102BA000032687E9C207C1830D06719A6360F60A9E
:102BB00003A7C18C636DE50883A6018D6379D508F1
:102BC000930685FF835885FF998EC206C18293853F
:102BD00088FF958DC205C18163EAF5066389F50614
:102BE00033031701034843006314080293858600EA
:102BF0001388818CAE97032E0800C207C1838358C7
:102C00000300B305F70063166E022320B80015A079
:102C10001388470163ED050393858600AE971388FB
:102C2000818CC20703230800C183B305F700E3EEDC
:102C300065FC23901501B6A123820500231CF5FE37
:102C400096216306D60036973EA382800145828096
:102C500039C51307350042074183719B4207418301
:102C6000B146BA876373D700B14737E7012003261F
:102C700087E9C207C1830D06719A01456362F602B6
:102C800003A7818C83AEC18C9385818C3303F6407E
:102C9000B306D741C206C182615E63E466000145A6
:102CA00082803385DE0003484500835805006317A2
:102CB00008063308DE4046986362F806138347012E
:102CC00063626804A107B697C207C1833388FE0018
:102CD000231018012311D8002302080085461EA1E5
:102CE00054A1835608006304D600F696BEA2631969
:102CF000A70083A6018D8147502301EE91C398C19F
:102D00002105828085475CA1DDB71A238547769728
:102D1000E5B7E39CE6FEEDD794C1DDB7C686B5BF47
:102D200083A5418283A68182B75701209387B7B7D5
:102D300037E70120F19B130747E11385060103D80C
:102D400005002320070001466318C8008906110703
:102D50008905E396A6FE82808328070005064206C1
:102D600023A0170183D806001CC34182C697E9BF80
:102D70009D4763EDA700B7E701200A05938747E168
:102D8000AA97884309C5184198C38280014582806B
:102D900099C99317250037E50120130545E13E95B4
:102DA0001C419CC10CC18280EFD2EFC698319C219E
:102DB000AA8422075D8FBC212E84C2075D8FBC319F
:102DC000E207D98F5841639FE70018301C20220783
:102DD0005D8F3C20C2075D8F3C30E207D98FDCC09D
:102DE0006FD0AFC603A5018E01499309400605C106
:102DF0001841DC40032AC5006311F7048545EF0044
:102E0000B0379307190093F7F70F63F7290383A7E8
:102E1000818EC5DF984319CFD440631DD70014308D
:102E20001820A206D98E38204207D98E3830620782
:102E3000558F98C3DC47F1BF3E8952854DBFEFD215
:102E40002FBF411132C636C42A84B93F3246A2464A
:102E5000814719CA18321C2222075D8F3C22C20703
:102E60005D8F3C32E207D98F1CC4814799CA9832E2
:102E70009C2222075D8FBC22C2075D8FBC32E20715
:102E8000D98F5CC441016FD0EFBCEFD26FBA58CD7F
:102E90001387C18D83480700411123220500232495
:102EA000050023260500A30805022320050213833D
:102EB0001800230A1503232805012A843EC623008F
:102EC0006700B53FB2472285829711E99387818DCC
:102ED000984318C080C3228541016FD0AFB7014429
:102EE000DDBF23AAA18C828003451503058982805A
:102EF000AA870145A5C5BDC3139605014182328845
:102F000063DB05003308C040BA27420813580801A4
:102F1000054563650705D427D84381C60D456391F0
:102F2000A6020D8F9386070105456369D702D8C3B2
:102F3000BA2701453297BAA79A273A9692A7828074
:102F4000FD16C206C1828548054563E9D80063D7EE
:102F50000500B62763E406010D8FD1BF8280EFD252
:102F60008FAB01440DCDAA8501440D498549FE254D
:102F7000FD17C207C183FEA59DE3DC2584411D45E5
:102F800063882701FD17C207C18363EDF900194566
:102F9000EFF01FE005041374F40FA685E9F822850D
:102FA0006FD0AFAA2E85EFF0DFB5EDB7EFD2AFA6A9
:102FB0008547630DF50031C589476306F5048D47E4
:102FC0006305F504014422856FD02FA88144D10404
:102FD000B904C204C1808947B2892E8963E9C70256
:102FE00071CA1945EFF0DFD82A8469DD2322050074
:102FF000231425012315250123200500230635016F
:10300000B5A0D144E9B78144E1B78144E9B78D4720
:103010000144E31AF6FA1D45EFF09FD52A845DD1ED
:10302000B3079500CD07F19B37E701205CC19307FB
:1030300007E9DC438D04F19893879703F19B2306FE
:1030400035012320050023142501B38497409309FB
:1030500007E963739900CA84854726A47EA4B30454
:1030600099400D4A2289854A6347900085477EA48E
:10307000A306040089BF1D45EFF09FCF01E522851F
:10308000F93D89B783A74900231645012320050090
:103090002320A9009387970306A5F19B63F3F4000F
:1030A000A687130705013EA558C1231755019D8C1E
:1030B0002A895DBF9387350013853401F19B71998F
:1030C0003E9542054181EFF0BFB82A84E30C05EE3E
:1030D000AA94CD04F19844C1231425012315250198
:1030E000232005002306050051B71E2563FAF504C9
:1030F000EFD20F942A84AE84B387F5402E2463E97F
:1031000095025C2481EF638B95004C402285818D74
:10311000A695C205C181EFF01FA72A84084026A406
:1031200006A419C1EFF0BFE3232004006FD08F92F3
:103130001A248D8CC2043E971AA4C18000407DBF22
:103140008280814719E13E858280850793F7F70FDA
:103150000841CDBF01C57E2585077EA5828009CDAA
:1031600099E182803A859E2516251841B697C207B7
:10317000C1831EA565FB0CC18280EFD26F8B2E84AC
:10318000F93F2285C13F6FD0EF8C3DCDEFD2AF88A4
:103190002A84AE845955ADC51A249E256362F7066C
:1031A0000149014A8359A400BE24B3894941B38728
:1031B000274163C9F904939907014840CC4093D94A
:1031C00009015295CA954E86EF5090334E9A3E248F
:1031D000420A4E994209135A0A011359090163948C
:1031E00047010040014ABE246365F900844099CC40
:1031F0000149BA249E246316F7029C409DC35D5585
:103200006FD0AF84C20955BF5955828009C80149A2
:103210003A241E246314F7001C40F5F3C1F4014561
:10322000C5B77DF441B783A6018E03A6818F83A520
:10323000818E03D50183938701831307150013152E
:10324000070113180701418163530800056536879C
:1032500019E7328719EB2E8719EF8AA3828003586A
:10326000C701E30CA8FC5847E5B70358C701E306BC
:10327000A8FC5847C5B70358C701E300A8FC584746
:10328000E1BF1C4963950710EFC2FFF84111AA8402
:10329000328409E62EC6413FB2452A8403A7818EB7
:1032A00031E703A7018E25EB83A9418E1389418E57
:1032B0004E8759E783A7818FCDEB85C198319C213B
:1032C00022075D8FBC21C2075D8FBC31E207D98F19
:1032D00089C711462685EF50B022C2AC23A634011F
:1032E00023209900014541016FC03FF65E2F639294
:1032F0008702104359CED1CD94319C21A206DD8E98
:10330000BC21C207DD8EBC31E207D58FD9C3630271
:10331000F608584771B75E2F63928702104335CA8B
:10332000ADC994319C21A206DD8EBC21C207DD8E81
:10333000BC31E207D58FB1CF630DF6045847A5B76E
:103340005E2F63928702104329C6A1C594319C2148
:10335000A206DD8EBC21C207DD8EBC31E207D58F0F
:103360008DCB6308F6025847A9B7DA2F631F870091
:1033700094319821A206D98EB8214207D98EB8314E
:103380006207558F94436386E600DC4735B74D5599
:103390008280555589BF37E70120AA874E351459D9
:1033A000032747E9105503D8C7033385D540058364
:1033B00032956373E80042873307E54063440700B2
:1033C000EEB782803307D6406356E00023970702AA
:1033D00001458280918EF6B7E5BFEFC27FE55E358D
:1033E0002A84BE95B7E70120138707E9C205584331
:1033F000C1814EB5938407E96373B7005AB522853E
:10340000593FDC408983636BF50083476402228562
:1034100093E727002303F402EF0030626FC09FE3BD
:10342000EFC21FE14111014409CDAA854841014481
:1034300011C52EC6EFF0BFB2B2452A841145EFF098
:103440003F95228541016FC0FFE0EFC27FDE01445E
:1034500001E522856FC01FE00441D9372A94137417
:10346000F40F2685F5B7EFC2BFDC41112AC611451E
:10347000EFF01F902A8401C9B2455146EF50500821
:103480004840EFF03FCD228541016FC0BFDC0CCD3D
:1034900082802326B50882802324B5088280232CCD
:1034A000B5088280232AB508A30CC50282801C4976
:1034B00005476373F70429476380E704EFC25FD7CA
:1034C0002A840325450809C5EFF07FA923220408B3
:1034D00003250408FD573EBCEFF03FF7285C23208E
:1034E0000408EFF09FF6685CEFF03FF6232C04062B
:1034F000232E04066FC01FD68280EFC27FD01387B1
:10350000C18EB7E7012083CC47E61C43296B8507B2
:1035100003A4018E1CC393096006814A1389C18EDE
:10352000138A018E094D130B4B13938B0184194C95
:1035300009E803A4818F9384818F631A04206FC0EC
:10354000FFCFFD1993F9F90FE38B09FE0347E4045C
:10355000144885446382EC028344C40A63880410DF
:103560008327840A33879B000347F7FF85072324BB
:10357000F40A63F2E70E81441C48639C87015458A7
:1035800003270900158FD14663F5E600850493F4FF
:10359000F40F1A24814D218B15CF11476385E70065
:1035A0001D476399E7020325040A0327440A83257C
:1035B000C4091306803E3307E502832609005C58E0
:1035C0009D8E2E973357C7026378D710850493F4E6
:1035D000F40F854D0325040819CD5C580327090015
:1035E0001D8F8317C404B38787036366F700EFF06A
:1035F000DFE5232004081C480D476392E710585864
:1036000083270900998F51476364F700638604108C
:103610002285EF2040452285EFF07FE95C44638AF4
:103620000A0E23A6FA008327840981C7084CED55AA
:103630008297638B0D005E305A2C0C54684C9306B5
:1036400044002286EF0010754444A2850945EFF03E
:103650002FF42684F1BD2324040A63659C008504AD
:103660002306940A2285EF10E01931B78317A403CB
:1036700063C4070085073EBC7C5CE38E07EE8317BE
:10368000A403E35AF0EE638EA60183178404831625
:10369000A4045A9718238D87B697B397E70023168B
:1036A000F4040357640583570406231D040263735F
:1036B000F700BA87C207C1835A3C8583231CF404F0
:1036C00063F6E70093171700231CF404231BE4049C
:1036D0002285EF00B07C4DB58347D40A814DB38776
:1036E000A702AE97B3D7C702E3F6D7EE2285EF1055
:1036F000800B8347D40A8507A306F40AE1BD25475A
:10370000E396E7F0585883270900998F130780073D
:10371000E5BD2320FA0001BF8347840303479403D8
:10372000850793F7F70F230CF40263EAE70083277A
:103730004409230C040299E72285EF001030A28A85
:103740004044FDB3084CA28582977DD5CDBF22852C
:10375000EF2060312285EFF09FD50329C400A285B8
:10376000094523A024014A84EFF08FE2F9B3EFC2A8
:103770003FAC03A4818F9384818F19E06FC09FAD0C
:103780002285EF20402E2285EFF07FD20329C4004E
:10379000A285094523A024014A84EFF06FDFF1BF21
:1037A000EFC21FA91C412E846390B704DC451CC1E5
:1037B000232604002285EFF09FCF1C482947638110
:1037C000E7020547638EE7008347640213F717009B
:1037D00001CB93E727002303F4022285EF00F025B5
:1037E000232804006FC01FA723AAF18E81461387E8
:1037F000418F89E7D5DE232007005DBFD0476317DF
:10380000860091C21CC35844D8C75DB78546B287AD
:10381000CDB71C491D476365F70AEFC27FA1296731
:103820008A0713074711BA979C432A848287EF209F
:1038300080231387418E1C43639987005C441CC31B
:1038400023260400A28509453DA823AAF18E8146BE
:103850001387418F89E7EDD623200700D5B7D047DE
:103860006317860091C21CC35844D8C7D1BF854690
:10387000B287CDB7EF20201FA2851385818EEFF090
:103880003FF2A2850D45EFF0AFD0014531A8EF2002
:10389000801DA2851385018EEFF09FF065B78545E9
:1038A000EF00900E954701C96FC0DF9A8545EF0084
:1038B000B00D7DF9A5471CC82285EF001018F1B79F
:1038C00001458280EFC2DF9641112E8511CE0E2672
:1038D00032C6EFF09FB032463285EFF04FE88147B5
:1038E0003E8541016FC01F978147FDFAEFF07FF2DF
:1038F000AA87FDB7EFC2DF9303A4018E930450069D
:1039000019E06FC03F950326440819CA8327C408ED
:103910008146A2858DCF084C829719E123220408A5
:10392000FD1493F4F40FF1DC8347640213F71700DE
:1039300009CF93E727002303F4022285EF00F00F5D
:1039400083476402F19B2303F402404455BF0145C1
:10395000EFF05FF7D9B7EFC2BF8DEFF0BFF9138774
:10396000018F1C23850793F7F70F1CA3858B99C341
:10397000EFF0BFB86FC01F8EEFC21F891849A9476B
:1039800041112A84631EF700AA851385818FEFF009
:103990003FE1A2850945EFF0AFBF41016FC05F8AEB
:1039A0001C412E8B0329C5053EC65C418329850237
:1039B000035AC5013EC4835A450283248509832BDB
:1039C0008501EF20400A1385018EA285EFF05FDDAF
:1039D000685C19C1EFF07FA7285C19C1EFF0FFA662
:1039E0000325040819C1EFF05FA6A2850945EFF091
:1039F0002FBA81C4ED555E858294E3000BFAD68719
:103A0000528734007000CE854A85EF00B03871B718
:103A10009387C182884303A7C18E3A9588C3828069
:103A2000EFC26FFFAA840945EFF08FB437E9012098
:103A3000130909E92A8425E183270901918B89E784
:103A4000014422856FC07F8083A7818F03A6C18E2A
:103A5000014581469389C18EE1EB01C58545EFF0B3
:103A6000BFF10945EFF0CFB02A8415E583A7018E99
:103A700003A50900FD1493F4F40F1306F007814524
:103A8000CDEF09C485452285EFF01FEF0945EFF022
:103A90002FAE2A8455D51306000B81452285EFC031
:103AA0002FFC930700045CA889672319F406832779
:103AB00049001397070141835AB47AB461773AA455
:103AC000130780216374F700930780215EBCB7075A
:103AD00003003CC48D472316F404FD573EBC8547C4
:103AE000231BF404EFF0DFF283A7C18E28D468CC47
:103AF0005CD8B74700009387478C2326F408B7E7C4
:103B0000012003A707E4938707E428C8232EE408CD
:103B1000D8439C4768D4230C04022320E40A2322C0
:103B2000F40AA306040A31BFD85B3307E640636496
:103B3000D700BA863E85DC4705B7D42B63ECD400AA
:103B4000636AD600D85B3307E5406365B700368605
:103B5000BA853E84DC472DB7EFC28FED1305000414
:103B6000EFF01FEC6FC00FEFEFC28FEC2A842E85B1
:103B7000EF20506C11CD1E3581CF938787FD3E8796
:103B8000C207C1836373F4002287131407014180C5
:103B900022856FC02FECEFC20FE81849CD545DE7C6
:103BA000AE89DD54C5C52A84328911051146B68413
:103BB000EF5000155E2C2312240381E7EFF0AFE6EF
:103BC0004AACEFF0FFE4B7E7012068CC7D1528C8C8
:103BD00068D403A547E92324040223280402931789
:103BE0000501C1835EB47EB42310F40693078021DF
:103BF00063F4A70013058021420541814ABCCE85AC
:103C0000EFF09FF68547231BF404A9474ABC330510
:103C1000F50289471387418E1CC81C43232894084A
:103C2000231CA404639787025C441CC39387018E02
:103C30009843894680C358C485470147014681455A
:103C400022851922AA8419E12285C52B26856FC0F9
:103C5000CFDF23AAF18E81461387418F89E7F9D6FA
:103C600023200700E1B7D0476317860091C21CC329
:103C70005844D8C765BF8546B287CDB7EFC24FDB82
:103C80002A894A2D41112E8432C6EFE0AFFA08A0EE
:103C9000218108B003554902EFE0CFF9324628A050
:103CA000218128B0935786000325890250A05CB07B
:103CB00093570601618270B07CA0EFE06FF99357D3
:103CC000850008A41CB4443493570501618128B4CD
:103CD0004824A2043CA4C98C4165130505FCEFE00F
:103CE0006FF5E98C4145EFE0EFF4458D42054181E8
:103CF00048A4218148B40355E902EFE0AFF368A47A
:103D00005C34218168B44824A20723090400A30974
:103D100004005D8DEFE0EFF295671375F5035D8D9F
:103D2000EFE04FF10357E9028327890248A421817C
:103D300048B423080400A3080400BA972328F90212
:103D4000228541016FC00FD1EFC28FCB79712EC692
:103D50003ACA2A89B28A368BBE8D01EE93F73600B5
:103D6000B3E7FD00595A91C38DC1528545616FC0BB
:103D7000EFCC8357250763FAC700834769027D5A52
:103D800093E707F82303F902CDB7139C2D0093F7AF
:103D90002D00137C4C00314791E301478327C9066E
:103DA0003A9C37E701203EC4930707E9D443A16753
:103DB00083544907B3D7D702130707E93ACEE3FE86
:103DC000F4FA41677117E36A97FA93572C00931638
:103DD0000C01C18293F7F70F950736C8D246B20798
:103DE000C2073AD2324D13170B01C183858A418332
:103DF0003ECCD68B8149814736D03AD4035AC90389
:103E0000330A8A4163D34B015E8A11453ED6931C27
:103E10000A01EFE0FFF593DC0C012A846305051825
:103E2000232005002322050063830914B25788C3A9
:103E3000825763800714C24701460145B385FC00E1
:103E4000C205C181EFF08F9648C0630E0514EFF0F4
:103E50004FAFB247AA94C204C18099CB5C40EA85B7
:103E6000C843C167FD173376FA006295EF40506989
:103E70005C40DC431CC4F2472167DC43B357F702C4
:103E800063E39712925763E0971248402316940118
:103E9000D145EFF0EF85631805105C400355C9016B
:103EA000B38B9B41DC43C20B93DB0B011CC83ED69A
:103EB000EFE04FD8B25788A3218188B31C4803553F
:103EC00049023ED6EFE00FD7B257A8A32181A8B38D
:103ED0001C4822453ED6EFE0AFD7B25713578500B6
:103EE000D8B313570501F8A31848C8A36181E8B3F4
:103EF0005C37482723090700A207C98F3ED6C16750
:103F0000A3090700138507FCEFE0CFD2B257E98F72
:103F100022553ED6EFE00FD2B2575D8D42051C48C8
:103F2000418113578500D8B7C8A72307B401EFE034
:103F30004FD162471C481375F503598D3ED6EFE00B
:103F40006FCFB257C8A72181C8B7C167FD17337AB1
:103F5000FA00A247529DD2973EC4A287E3900BEA93
:103F6000032A890763190A06232C390751A2AA8953
:103F7000C1B5C24501460145EFF04F8348C005C5B4
:103F8000EFF02F9CAA94C204C180E3860BEEE68575
:103F900005460D45EFF08F81AA85484095E1EFE099
:103FA0001FFC23220400834769027D5A93E707F828
:103FB0002303F902E38B09DA4E85EFF00FC975B3DD
:103FC00023A2A5018504C2042324A401C180EFF02B
:103FD0000F9955B53E8A83270A00EDFF83270A0112
:103FE000835BCA00C827DC37A2075D8DEFE06FC591
:103FF0000D893335A0005E956305051883270A01F6
:10400000C827DC37A2075D8DEFE0AFC30D89631AC7
:10401000051693773B0081C785476314FB1603D7CA
:10402000C9008357CA00BA970357C903634BF714F3
:104030000347EA0083C7E9006315F71403270A0161
:1040400048335C2322055D8D7C23C207C98F68330A
:1040500062055D8DEFE00FC203A70901835BCA0013
:104060005C23AA9B483322055D8D7C23C207C98F40
:10407000683362055D8DEFE0EFBF6394AB10C2471C
:10408000B15503A549009D8DC205C185EFE05FE6EE
:10409000E31B05F003A549003E2599EB1C41FD14E7
:1040A000C20423A2F90023200500C180EFE03FEB0A
:1040B00093771B00CDC783270A0183CBD700C8277E
:1040C000A20BB3EBAB000545EFE0CFB683270A01A7
:1040D00033E5AB0042054181C8A72181C8B763958C
:1040E0008900835CCA005284CE851145EFE05FCA27
:1040F00093773B0089C7850AC20A93DA0A01137BCA
:104100001B0063080B008347690293E70702230340
:10411000F9028327C906231A9906014AD69723264E
:10412000F90683572907B38A574123195907E38EA4
:104130000CC21C48E38B07C25247098BE31707C226
:10414000C437C827A204C98C2145EFE0AFAE1C4894
:10415000458D42054181C8A72181C8B739B183A5E2
:10416000490003254A00EFE09FFF03D7C9008357AA
:10417000CA00BA972316FA0083A709002320FA0081
:10418000B9BF23203A01ADB7EFC28F8AAE8681470F
:10419000054701468145EFF03FBB6FC0AF8BAA8753
:1041A00008491D476308E5001308E5FF0947615505
:1041B000636E0701014519CAEFC28F8736873E85B6
:1041C00081468147EFF05FB86FC0CF888280EFC231
:1041D0008F842A840146D1450545EFE03FDD21CD9E
:1041E00083476402AA84684CF19B2303F402EFE046
:1041F0002FA6CC402A862285EFF05FA89A241309C7
:104200004400AA8999464A86A2852685EF20206B1C
:104210002388A9002181A388A90038243434994730
:104220004A86A2852685EF20F0462685EFE03FD31B
:1042300001456FC08F817955EDBF83A78193638955
:10424000A734EFB2FFFB83570506035A650563F3F6
:1042500047013E8A83476502420A2A84898B135AA2
:104260000A01245D95CB91E42285EFF05FF66FB0F3
:10427000FFFC984848335C2322055D8D7C23C207F0
:10428000C98F683362055D8DEFE0CF9EDE2438482C
:10429000998F3E95E36AAAFC8329C40763960908AF
:1042A000B7EA0120894B938A0AE9370C0402130B01
:1042B0004400FD5CADC0984848335C2322055D8D09
:1042C0007C23C207C98F683362055D8DEFE08F9A4A
:1042D000DE243848998F3E95637CAA048347C40A3C
:1042E0009DEB984848335C2322055D8D7C23C207F3
:1042F000C98F683362055D8DEFE0CF97DE243848C3
:10430000998F3E958357040663F7A70085472324BA
:10431000040A2306F40A83476402014593F7F7076A
:104320002303F402A9B7BE8983A70900EDFF8DBF5F
:104330007C5C8DC38347640213F7470401EF385C4C
:1043400019C7144381EA56275A3C63F5E60093F7F0
:10435000070AC9D79C403CDC1C48638977039C480A
:1043600003C9D700C82722093369A9004145EFE0F6
:104370006F8C9C483365A90042054181C8A7218103
:10438000C8B783476402F19B2303F402085403A9CE
:104390000401EFE0EF8B935785002304A900A304E9
:1043A000F900935705016181A305A9006A3423052B
:1043B000F90003A90401EFE0EF877A341C542307C6
:1043C000A9002181A307A900BA971CD8FC24858BDA
:1043D00099CB03A54A0003A904013365AC00EFE0C3
:1043E0002F87232AA9001C4099E75A85EF20806473
:1043F00049C55C411CC08317A40363949701231D26
:1044000004023C4095E383A7C18E98483CC04833E2
:104410005C2322055D8D7C23C207C98F683362054A
:104420005D8DEFE02F8568C0C84003A9040199465F
:104430005841232225015A863307E9409317070183
:104440003A25C183A2851D8F3AA51A251D8F4207E3
:1044500041831AA523080900A3080900EF2020467C
:104460002308A9002181A308A90038243434C840B6
:1044700099475A86A285EF20F021984848335C235B
:1044800022055D8D7C23C207C98F683362055D8D6F
:10449000EFD05FFE9C482A8983DDC400C827DC3743
:1044A000A2075D8DEFD0FFF90D893335A0007C4C5C
:1044B0006E954A95898F63D3070068CC9C4803D9D1
:1044C000C400C827DC37A2075D8DEFD09FF70D89A8
:1044D0003335A0004A954DC97C5C23A0040081E7D8
:1044E00064DCA68999A8984848335C2322055D8D31
:1044F0007C23C207C98F683362055D8DEFD09FF7BB
:1045000003A709012A8948335C2322055D8D7C239A
:10451000C207C98F683362055D8DEFD0BFF53305E3
:10452000A940635005061309C4078327090081EBDE
:10453000832709009CC023209900245CA5BB984BCD
:1045400048335C2322055D8D7C23C207C98F683305
:1045500062055D8DEFD01FF29848AA8D48335C2329
:1045600022055D8D7C23C207C98F683362055D8D8E
:10457000EFD05FF03385AD40E35C05FA0329090015
:104580006DB723A09900B1BF2685EFE07FE975B72D
:1045900001458280EFB23FC84111AA8AAE84B28938
:1045A000D14501460545368A3AC63E8BEFE01FA04D
:1045B0006303050E324740412A893A85EFD09FE7D1
:1045C00008A0218108B05A85EFD0DFE628A021811C
:1045D00028B05685EFD0DFE79357850048A05CB040
:1045E0009357050161817CA068B02685EFD05FE616
:1045F0009357850008A41CB4443493570501618186
:1046000028B44824A2043CA4C98C4165130505FCC8
:10461000EFD05FE2E98C5145EFD0DFE1458D4205F7
:104620004181B7E7012048A4218148B403D547E977
:10463000EFD05FE068A45C34218168B44824A2070D
:10464000230904005D8DA3090400EFD09FDF956767
:104650001375F5035D8DEFD0FFDD0357890048A486
:10466000218148B499465286CE8523080400A308C8
:1046700004004A85EF20A02408A8218108B89947A2
:104680000147930600085286CE854A85EF209000A8
:104690004A85EFE0DF8C41016FB03FBB7C5D85CB8D
:1046A000EFB21FB93E8714438DE2345D14C33CDD85
:1046B0008347E504232E05062320050485072307E9
:1046C000F504EFF09FB76FB0FFB83687E9BF82807F
:1046D000EFB27FB4645D8DC49C402A8413098507C2
:1046E0007CDD8327090099EF832709009CC02320E4
:1046F00099008347E4042320040485072307F40476
:104700006FB0BFB4984B48335C2322055D8D7C238A
:10471000C207C98F683362055D8DEFD0BFD5984859
:10472000AA8948335C2322055D8D7C23C207C98F8B
:10473000683362055D8DEFD0FFD33385A940E35523
:1047400005FA0329090071BF7C5DA9CFEFB25FAE06
:10475000834765022A84918BA1E7EFF07FF78356A8
:1047600064058357040613D7160063F4D70013D7E4
:1047700017005E3C231CE404939617006354D70093
:10478000231CD4040D47B387E70203578405BA9767
:10479000231BF4048347640293E747002303F402D6
:1047A0006FB05FAB8280EFB21FA7AA840146D145EC
:1047B0000545EFE0AFFF29C52A84E84C1389440082
:1047C0007D15EFD0FFC84C402A862685EFF00FCB31
:1047D0001A24AA8999464A86A6852285EF20200EAA
:1047E0002388A9002181A388A900B43499470147EF
:1047F0004A86A6852285EF20E0692285EFE02FF624
:104800006FB0BFA4EFB23FA1605D19E0205D5DC451
:104810001C48AA84C827DC37A2075D8DEFD07FC271
:10482000058959CD5E24C9EF054AD14501460545A4
:10483000EFE0CFF72A8959C118484C4126855033FB
:104840005C2322065D8E7C23C207D18F7033620603
:104850005D8EEFF0AFC2AA8963070A0640355C257A
:1048600041652204130505FC5D8CEFD0BFBC698C4B
:104870004545EFD03FBC498C93170401C183238683
:10488000F900A183A386F90003578900138444002B
:1048900099462286A6854A85EF2060022388A900D2
:1048A0002181A388A900B434994701472286A685AF
:1048B0004A85EF20205E4A85EFE06FEA6FB0FF98EF
:1048C000014AD545A5B718448327490003070700C7
:1048D000D8AB5DBF37F7FF1F81471307D77E9946D7
:1048E0003306F7400C223306F50085070CA2E39946
:1048F000D7FE82802A8883A8418703A60800635DCB
:104900000600B7970240D84B1377070811C7130763
:104910000008D8CB23A40700A16793870730F18F45
:1049200013070030639FE70837E70120930747CC60
:1049300083A6470C89451303005F8A06BE968CC286
:1049400083A6470C93152600C981C1068A06F11576
:10495000BE968CC283A5470C83A6470CB38565021F
:104960009386060237C30020130343168A06BE96B9
:104970009A958CC283A6470C938606028A06BE9639
:10498000944283A6870C850623A4D70C83A6470CE4
:10499000850623A2D70C83A5470CA54663F4B60071
:1049A00023A2070C03A7470C85460A073E9714C3AA
:1049B00023A6D70C83A6870C29476374D70023A4AA
:1049C000E70CB70700805D8E83A7C80023A0C8004E
:1049D00023AAF1864285828003A78187144363C797
:1049E0000602370600B04E05D18E4D8114C348C370
:1049F000B7960240D04A118A09C61146D0CA23A2EE
:104A000006005847054523ACE18682800145828037
:104A1000EFB21F822E892A84EFC05FF8A2854A86F2
:104A2000EF40002E37E400E08964232494184A857F
:104A3000EFF09FFA23249410054723A4E18A6FB076
:104A40007F81EFB2EFFE41113787024002C61C4B57
:104A5000AE8421668D9B1CCB81452A842685EFC0C0
:104A60009FDE13054006EFD00FCA81452685EFC0B3
:104A70001FD893770510814681C785679386078085
:104A8000358105890C445C403A0514D048C8378705
:104A900002401043CD8FB78520FF9385F5106D8EB2
:104AA000D18F5044D18F1048D18F104CD18F504CA2
:104AB000D18F5050D18F1054D18F5054D18F105866
:104AC000D18F5058D18FD58FC98F1CC31C43B706C7
:104AD00010000545D58F1CC3545C1C5CD58F344039
:104AE000D58F7440D58F3444D58F7444D58F3448D6
:104AF000D58F7448D58F5CC33C4C1CC77C4C5CC7BD
:104B0000144F7C503054D18F4166130616F4F18E49
:104B1000D58F7454D58F3458D58F7458D58F345061
:104B2000C206D58F1CCF745C3C5CD58F5CCF03264E
:104B300044088327040837970240144FD18F374623
:104B4000DEF8130636F2F18ED58F83268408D58FD2
:104B50008326C408D58F83260409D58F832644096C
:104B6000D58F83268409D58F8326C409D58F8326C4
:104B7000040AD58F1CCF8326840A8327440AD58F45
:104B80008326440B8A06D58F8326C40AD58F8326B5
:104B9000040BD58F8326840BD58FB7068000D58F65
:104BA0001CC341016FB00FEBEFB28FE84111854597
:104BB000214502C202C402C6EFD0EF87930700303E
:104BC000371401407C82C1473EC64C008D47130517
:104BD00004C03EC4EFC01FDD130504C093050010E0
:104BE000EFC05FE893050020130504C0EFC09FE706
:104BF00041016FB02FE6EFB2AFE39305001009C992
:104C000037150140130505C0EFC0DFE56FB08FE435
:104C100037150140130505C0EFC01FE5C5BFEFB252
:104C20002FE19305002009C937150140130505C080
:104C3000EFC05FE36FB00FE237150140130505C009
:104C4000EFC09FE2C5BFEFB2AFDE31718545716540
:104C5000EFC09FFC3747024083270780096493E732
:104C600047002320F780EFC0DFA9EFC0DFCB48006B
:104C7000EFC07FAA8567938707803ED2A1673ECCAD
:104C80001307002085473EC23AD6BEC837070080CA
:104C9000B70700023ADE3EC53ED537072000C167A0
:104CA0003AC93ED713070008B70740003ACD3ED9AE
:104CB000130700049167854548003ACF3EDF22DBA9
:104CC00002D002D882C482CA82CC02C302D3EFF0DF
:104CD0005FD737050180854513051504EFC03FCA2E
:104CE000B7E700E0A386074423A48710EFF0DFEBCB
:104CF00029616FB02FD603A7018AB7E701209387F8
:104D000047E388A3239107002392070098C7A38055
:104D100007008280EFB2CFD1B7E40120138484DA98
:104D20005C4041116C00138584DA3EC623220400E6
:104D3000EF10604CB2476C00138584DA5CC05C44B1
:104D40003EC6EF10404B41016FB0CFD0B7E7012016
:104D5000938747E3982319E388C78280984793068F
:104D6000703E3307E54063F3E602EFB26FCCBA233F
:104D700088C7914663F7E6000145EFF0DFF76FB0B3
:104D80006FCD0507BAA3EFF0FFF8D5BF8280EFB271
:104D90002FCA1384C18F1840BD679387F7A53307C7
:104DA000E54063F6E700AA84EFF0DFF604C06FB0D9
:104DB0006FCAEFB2EFC72A840145EFF0DFF3B7E720
:104DC0000120938747E311C8054798B3B7E701204F
:104DD000094723ACE7E66FB0EFC7A3800700E5BF44
:104DE000828003288503630A0802EFB26FC4BC5DAA
:104DF000014791C70507420741839C43DDBFFC5D26
:104E000091C70507420741839C43DDBF81460146A8
:104E10008145029801456FB0EFC30145828001458D
:104E20008280EFB24FBF5C4200490329C500AA84CB
:104E300088239C33328AA2075D8DEFD08FE0935593
:104E4000650093F5C503B305B0405285EFE04F8A86
:104E500041E919C0DC4499E75285EFE04F900545E0
:104E60006FB0AFBE33072401D28781497D17B627C3
:104E7000CC43B699C209A29693D90901636AD704B3
:104E8000814603D8A7001395060141813306D4005B
:104E900063620505328415A03385D5000821130609
:104EA000140008A06373C700904485063284AA27C3
:104EB000139606014182E361A6FE9C43CDFB528519
:104EC000EFE0EF899C4C80C8BE9923AC340141BF10
:104ED0008146F1BF3385D5000821850608A255B764
:104EE0000145BDBFEFB22FB32A843285105C41115A
:104EF00004480328C40019EEB3059800FD1501C944
:104F00003A86368999C063190800EFE04F85410160
:104F10006FB0AFB30444CDB7AA878149B62703A8C1
:104F20004700B699C209A69693D9090163EBD50843
:104F3000814603D3A7009398060193D808013387CD
:104F4000D40063E26808BA842DA0B308D80083C8EF
:104F50000800138714002380140163F3E50018444C
:104F60008506BA8483D8A700139706014183E36EB0
:104F700017FD9C43C5F732C6EFD07FFE05670328B7
:104F80008403CE8732466373370185671397070121
:104F900041836302080483451900834709001444D0
:104FA000A205DD8D834729002285C207CD8F834569
:104FB0003900E205DD8D02981C44232C04001CC836
:104FC000B9B7814645B7B308D80083C8080085063D
:104FD00023001701B9BF1C4C04C83E9718CC05BF6D
:104FE000EFB20FA213878190032807001C49832981
:104FF000C50005082320070163810712B28A2E89A4
:105000002A846306061003C76502BE99938BF9FFD5
:10501000719B37EB0120C209035C8600B2842383B5
:10502000E502914C130B0BE993D90901B22403ADAE
:1050300044003387C70063F1EB0A03270B01098B98
:1050400051CB139A0701135A0A01B38D4941C20D7E
:1050500093DD0D013E856E86EA85EF30704ABA24F5
:105060001C44B306B7416350D002330737413A9A24
:10507000420A135A0A013E855286B305BD01EF303C
:105080003048B30745018440D5F0184C1CC85685FC
:105090003A9C232C8401EFD09FEC5C44184C4A8549
:1050A000998F2316F902EFE00FAF01456FB00F990A
:1050B0003306ED0010229386170090A363F3DB0004
:1050C00014440507B687B22493160701C182E3E1B1
:1050D000C6FE55BF0147C5BF63F9CC023E85EA85D0
:1050E000EF301042BA24B307E50071BF3306ED007C
:1050F0001022050790A2AE24131607014182B38641
:10510000E700E365B6FEB687BDBF0147EDB70145D1
:10511000D1FE2E85EFE0EFEF51BF7D5541BFEFB2DD
:105120002F912E84B7550000AA84938505FE228511
:10513000EFE02FB6B75500002285938525DEEFE01E
:10514000AFB5B7550000228505469385E5E1EFE050
:105150006FB59C20014593E787009CC06FB08F8F8F
:1051600019C93305A040A967938787141375F50FF4
:105170003E9508218280014582808147139707016F
:1051800041836313E60082803387F50014233307DD
:10519000F500850714A3DDB7EFB28F899307C0032D
:1051A000B387F502377401201307C46C2A89AE84D3
:1051B0001306C00381451304C46CBA973E85EFB053
:1051C0002F8A630709001306C003CA85EF305033E6
:1051D0009305C003B385B402A2959C459CC9DCC964
:1051E0006FB04F87EFB22F8337E4012041112A8A35
:1051F000AE891305C4E48145B2841306400436C663
:10520000EFB00F8637E50120614681451305C5CA19
:10521000EFB00F851146D2851305C4E4EF30502E50
:105220001309C4E41146CE8513054900EF30502D13
:10523000B24619461305C900B685EF30702C130429
:10524000C4E4C1E8FD571CB43CA4D1471CCCA94719
:105250005CCC89473CC0814413090002A6858504C3
:10526000014593F4F40FEFF03FF3E39924FFEFF0DF
:105270009F9DB705012037C500200946938545CC81
:105280001305450CEFC04FE1B7C5002037C500201E
:1052900029469385451613054502EFC00FE4EFC07C
:1052A000EFEAEFF07F90EFC07FFD85475CD0156798
:1052B000B7E70120938707E4130707E298C3116754
:1052C000130787A9D8C3254798C7014541016FA097
:1052D000DFF71146A68513058400EF307022B5B7BD
:1052E0001841B7E70120938707E998C35841D8C30D
:1052F000184598C75845D8C71849014598CB8280AA
:10530000EFA21FF3938401909840A5471384419026
:1053100063F4E7020545EFF09F90184083A7018AE8
:10532000998F130740066377F700014523A0040017
:10533000EFF0FF8E6FA01FF283A7018A1CC0DDBFB4
:10534000EFA21FEFB7970240DC4B411163DE07026B
:1053500085450545EFC0AFC9B7E701209387C7E48E
:10536000D85788D3118913674700D8D73DC901455D
:10537000EFF07F880145EFF09F8A0545EFF0BF977A
:1053800037050080EFC00FDBB7970240DC4B93F787
:10539000070489CF9387019098430A85050798C32E
:1053A000EFF04FD513050004EFC0CFD8B7970240F8
:1053B000DC4B858B91C7054523A4018AEFC08FD7AD
:1053C000B7970240DC4BC18B99C737A50000130586
:1053D0008515EF30F02F4165EFC0CFD541016FA0AB
:1053E0007FE70545EFF03F810545EFF05F8349BF5B
:1053F00083A7018A3E9523A0A18A82803777012066
:105400009306C76C81471307C76C13060002032875
:1054100007036317A80009C5054595CD9CA18280A7
:10542000850793F7F70F1307C703E392C7FE81477A
:1054300013070002D05A6318C50011C5054581CD78
:1054400093E707F8E1BF850793F7F70F9386C60345
:10545000E392E7FE01458280EFA2FFDB377901206E
:105460009307C96C41112300050001441309C96C5D
:105470001307000294536389061805041374F40F8C
:105480009387C703E318E4FE228541016FA0FFDB89
:10549000B7E7012083A7C7E46C003EC6EF10102ECB
:1054A00011469385C4026800EF3090056C004E856C
:1054B000EF10B02E1306C0033306C402B755000028
:1054C000938525E24E854A96EF10102F954737E5D4
:1054D00001206C0023A834039CD0130585DAEF006B
:1054E0009051A2852685EFF03FCB014471BF09475B
:1054F0006391E70AEF30A040AA8963040512938AFA
:10550000C4021146D6856800EF30807F324A3705E5
:1055100000F0EFC03FF6337AAA00370500E0EFC095
:105520007FF56300AA04B7E50120938585DA68005A
:10553000EF10B0191DE5B7E7012083A7C7E4923447
:105540006C004E853EC6EF3020181DE1D685114611
:105550006800EF30E07AD2306C004E85EF30E031F9
:1055600039A09234938581854E85EF30E01509C5C9
:10557000EFF01FBF2A8409BF1306C0033306C4021D
:10558000B7550000938545EE4E854A96EF30C036FC
:1055900035BF0D476397E706EFE00FDCAA8951C1DD
:1055A000B7E7012083A7C7E492346C003EC6EFD072
:1055B0005FCD2A8A11C54E85EFE0AFA552854DBF5C
:1055C0009305C003B305B4024E85CA95EFD03FECF6
:1055D000B75500004E85938505DEEFD05FEC95470B
:1055E000A285268523A8340323AA34039CD0EFF098
:1055F000BFBA37E501206C00130585DAEF00B03F34
:10560000EDB51304100249B500A1DC4DC0C1AE8454
:10561000E39F07EC03C58402EF105023AA89E31926
:1056200005E6454495B5EFA2BFC04EB56EB52A84D8
:1056300099C1EFD05FD683476402228593E72700A4
:105640002303F402EFE07FBF05456FA0BFC0EFA2C8
:105650009FBC9306C003B306D502B7740120B2897C
:105660009387C46C104223A00900BE9698529547B8
:105670006317F71A2A8969454DCE03AB8600D846D1
:10568000AE8A03AA8601CC4A5A979384C46CAE872B
:105690007D1763734601328A3384450163840A149B
:1056A000637BE400914663F8460152865685EF30ED
:1056B0002065A287A9A0B7E6012083A606EA898A09
:1056C000638006120D8F1304170063738A005284DF
:1056D000914763F2870622865685EF306062DA874B
:1056E000637F440133858A00914733048A4063FB1A
:1056F00087042286DA85EF30A060B3078B0013079A
:10570000C0033307E90223A049012697104F5CCB61
:105710003306464110CF01E61C475CCB1CCB9307F8
:10572000C0033309F9028D47CA94D84C630DF70CB6
:1057300001456FA09FB11316040141825685EFF019
:10574000DFA371BF131604014182DA85EFF0FFA2D7
:105750006DB7902385072380CA006373F700DA874B
:1057600013861600E37D46F990238507A380CA00BF
:105770006373F700DA8713862600E37246F99023F5
:1057800085072381CA006373F700DA871386360022
:10579000E37746F790238507A381CA006373F70078
:1057A000DA8713864600E37C46F5138617009C23B0
:1057B0002382FA006373C7005A869387560063F208
:1057C0004705930716001022990AA38FCAFE637338
:1057D000F700DA879906E3F446F3E3EC46F705B7FA
:1057E0008146E5BF6375E4009146E3E446ED8146FA
:1057F00031A085076373F700DA878506E39B46FFD0
:10580000FDBDB287EDBDCC4488583386C540420605
:10581000418272B5E39EC5F0EFF0FFE011BF5D4538
:1058200009BFB77701209387C76C81C91307C003ED
:105830003307E5023E97584B98C11307C003330561
:10584000E502AA97884F8280EFA29F9B0042232007
:105850000600411161CCAA8A2E8B6945B1C5930718
:10586000C003B387FA02377501201307C56C37EA06
:105870000120B289930BC56C0149BA9703AC0703A9
:105880009307CAE4BC43130ACAE4898B99E313095A
:10589000700C930C900C130D805C05094209135990
:1058A000090163169901014541016FA03F99A28446
:1058B00063748D009304805C939504010146C1815B
:1058C0000145EFD0AFEEAA8D25C548412686DA8581
:1058D000EF300043EE856285232E0A02EF1000763A
:1058E0002AC66E85EFD0AFE70327CA03B24705C7C4
:1058F0001305C0033385AA0223A009005E95182171
:105900001367070418C11305A00FE3DF07F83E85EE
:10591000EFF01F8551BFE3CD07FC83A70900058C7D
:10592000269BA69723A0F9002DF8B5BF6945ADBF0A
:1059300045459DBFEFA25F8D0042232006005DCC50
:10594000AA87AE8A6945A1C51305C003B387A7021C
:10595000377501201305C56C37EA0120B28901496A
:10596000AA9783AB07039307CAE4BC43130ACAE4AC
:10597000898B99E31309700C130C900C930C005C49
:1059800005094209135909016315890101456FA0F1
:105990003F8BA28463F48C009304005C9395040114
:1059A0000146C1810145EFD06FE02A8B31C94841E2
:1059B0002686D685EF30C034DA855E85232E0A022E
:1059C000EF20906A2A8D5A85EFD06FD98327CA03BA
:1059D00099CB23A009001305A00FE35A0DFA6A859D
:1059E000EFF00FF86DB7E3460DFE83A70900058CB5
:1059F000A69AA69723A0F90041F449BF694541BF83
:105A0000454571B7EFA2DF829147AA840021638FD9
:105A1000F50263ECB70085476386F5028947136496
:105A200024006383F5026FA0FF82C1476383F50200
:105A3000930700046386F502A147E396F5FE13641D
:105A4000840019A01364140080C0F1BF13644400E3
:105A5000E5BF48591364040165D9EFD09FDBEDB76A
:105A600013640404D5B7EFA2AFFC41119305F10014
:105A7000AA84A3070100EFF07F9815C580879317CC
:105A80008401E18763D407021374F4071307C0038A
:105A90003304E402B77701209387C76C3E94232A2E
:105AA00004022320040241016FA0CFFAFD47E3EC7A
:105AB00087FE1307C0033307E402B77601209387FC
:105AC000C66C1389C66CBA97D04F0D47E31DE6FC30
:105AD00084281306C00381453E85EFA06FF8DD14CE
