:100000006F10C06513000000130000001300000013
:100010001300000013000000130000001300000094
:100020001300000013000000130000001300000084
:08003000130000007300100032
:100038000000000000000000A8020000AC02000060
:1000480000000000A21500000000000000000000F1
:10005800A4150000A6150000000000000000000024
:10006800A815000000000000AA150000000000000C
:10007800AC150000AE150000B0150000B215000068
:10008800B4150000B6150000B8150000BA15000038
:10009800BC150000BE150000C0150000C215000008
:1000A800C4150000C6150000C8150000CA150000D8
:1000B8007C120000CE150000D0150000D2150000FB
:1000C800D4150000D6150000D8150000DA15000078
:1000D800DC150000DE150000E0150000E215000048
:1000E800E4150000E6150000E8150000EA15000018
:1000F800EC150000EE150000F0150000F2150000E8
:10010800F4150000F615000020140000FA15000090
:10011800FC150000FE150000001600000216000085
:100128000416000006160000081600000A16000053
:100138000C1600000E160000101600001216000023
:100148001416000016160000181600001A160000F3
:100158001C1600001E1600002016000022160000C3
:100168002416000026160000281600002A16000093
:100178002C1600002E16000030160000AE050000F8
:100188003416000036160000381600003A16000033
:100198003C1600003E160000401600004216000003
:1001A8004416000046160000481600004A160000D3
:1001B8004C1600004E1600005016000052160000A3
:1001C8005416000056160000581600005A16000073
:1001D8000000000000000000000000000000000017
:1001E8000000000000000000000000000000000007
:0801F8000000000000000000FF
:100200003D432A876373C3029377F700BDEFADE5E3
:10021000937606FF3D8ABA960CC34CC30CC74CC7F5
:100220004107E36BD7FE11E28280B306C3408A0622
:100230009702000096966780A6002307B700A306E2
:10024000B7002306B700A305B7002305B700A30432
:10025000B7002304B700A303B7002303B700A3022A
:10026000B7002302B700A301B7002301B700A30022
:10027000B7002300B700828093F5F50F93968500B1
:10028000D58D93960501D58D61B79396270097027A
:10029000000096968682E78086FA9680C1171D8FA9
:1002A0003E96E374C3F8A5B77300203001A0B707EA
:1002B0000050238007001307C0FC2386E700A386B5
:1002C000E7002387E7003147A387E70003A741B092
:1002D00098CB03A741C9D8CB03A7C1AF98CF03A739
:1002E00001B0D8CF03A781AF98D303A781C0D8D3DB
:1002F00003A7C1AE98D703A70186D8D7A389070261
:10030000A38B0702A38D0702A38F0702A381070413
:10031000A3830704A3850704A38707040947238948
:10032000E7022147239AE702239CE702239EE70284
:100330002390E7042392E7042394E7042396E70439
:10034000238B0702238DE702238FE7022381E70433
:100350002383E7042385E7042387E7047D5723836A
:10036000E7001D472381E700A381070013079002E0
:100370002380E700130710F8A380E7008280411173
:10038000054506C6EF1050110145EF10700B0545ED
:10039000EF1070090545EF10500C0545EF10900D5A
:1003A0000565854513050580EF105002B24085456F
:1003B000056541016F109001938781B823A2F1B0C8
:1003C000938781B023AAF1C89387819E23AEF1AEB3
:1003D000B70700209387C71323A0F1B0938741C1CB
:1003E00023ACF1AE9387419623A4F1C09387418E4D
:1003F00023A6F1AE4111938781A606C623A0F186FC
:10040000BD3F13054006EF107029553537470240B0
:1004100083270780B24093E727002320F780B7E7C0
:1004200000E03707080023A4E71041018280B707E6
:100430000050239AA70203C767031377C70F238BC4
:10044000E70203C7670313474700238BE70205470B
:100450002390E1848280B7070050239CA70203C742
:10046000A7031377C70F238DE70203C7A70313471B
:100470004700238DE7028280B7070050239EA70222
:1004800003C7E7031377C70F238FE7028280B707FD
:1004900000502390A70403C727041377C70F2381B5
:1004A000E70403C72704134747002381E70482803A
:1004B000B70700502392A70403C767041377C70F39
:1004C0002383E7048280B70700502394A70403C75F
:1004D000A7041377C70F2385E7048280B70700506E
:1004E0002396A70403C7E7041377C70F2387E704FE
:1004F0008280814713F7F70F6363A7000DBF03A73F
:1005000041C93E9783460700850793C6F6FF23003F
:10051000D704CDB7814713F7F70F6363A70025BF53
:1005200003A7C1AF3E9783460700850793C6F6FF32
:100530002300D704CDB7814713F7F70F6363A700F4
:1005400025BF03A701B03E97034607008507230098
:10055000C704DDB7814713F7F70F6363A70089BFAF
:1005600003A781C03E970346070085072300C70401
:10057000DDB7814713F7F70F6363A700A9B703A798
:10058000C1AE3E970346070085072300C704DDB7C9
:10059000814713F7F70F6363A70089B703A70186A5
:1005A0003E970346070085072300C704DDB7B7075A
:1005B000005003C767001377F70F93762700E38A8D
:1005C000060E011122CE26CC4ACA4EC852C656C4C7
:1005D00003C7770093060002137707036304D75617
:1005E000930600036302D702631D071A83C77700CF
:1005F0001D4793F7F7036366F71A0D678A0713071A
:10060000C729BA979C43828719472389E702114774
:10061000A389E70203A941B0834779000347690032
:10062000A207D98F2394F1AE034719002385E1AEC9
:10063000034A090083C7A1AE13770A063DCF13070B
:100640001002631AF70283D781AE1D47A144636687
:10065000F70083D481AE93F4F40FB705002013891B
:10066000850D26869385850D138581B8EF1070154D
:10067000CA9423A891AE620A135A8A4181476352F1
:100680000A0203D781AEA14763E6E70083D781AEB4
:1006900093F7F70F03D781AE1D8F42074183239451
:1006A000E1AEC207C183370700502318F702914714
:1006B0002309F702A309F702EDA093F7F70F2D47DF
:1006C000636AF70C0D678A071307C72BBA979C4319
:1006D000828783473900034729009946A207D98FAB
:1006E00013D787006308D71463EFE60089466308D1
:1006F000D70C0D46630EC70C85476305F7049304BA
:10070000F00F8147B9A0BD47630DF7109307200292
:100710006309F7109D47E314F7FE83C7718093F7D1
:10072000F70FF1FFB7040020938404008D651306D2
:1007300020069385E53013852400EF10900823A848
:1007400091AE59A08D679387073723A8F1AE8144F6
:10075000C94703D781AEC207C18363F4E70023947E
:10076000F1AE83D781AE1D47A14A6366F70083DAF5
:1007700081AE93FAFA0F83A501AF56864A85EF1032
:10078000500483A701AFBE9A23A851AF9307F00F7F
:10079000E393F4EEB70700501D472389E702A389CE
:1007A000E702B707005009472383E7007244E24499
:1007B0005249C249324AA24A0561730020308D670E
:1007C0009387C73023A8F1AE81449307400651B701
:1007D00093F7F70F05466386C70289CF638BD7026D
:1007E000E39FE7F08D679387073E23A8F1AE81442E
:1007F000D94785B79387018223A8F1AE81449147F9
:1008000089BF8D679387473823A8F1AE8144B947E4
:1008100089B78D679387473923A8F1AE8144B147E3
:100820000DBF8D679387073A23A8F1AE81449307E4
:10083000E00305B78D679387873F23A8F1AE814416
:10084000A94701BF834729002394F1AE2DB583C783
:10085000419E2300F90003D781AE8547E3E6E7FE1A
:1008600019BD034729002382E19E31B51377FA01B0
:100870008947E311F7F28347490091466384D70C17
:1008800063E2F6026383E7086365F70A0547E393CB
:10089000E7F0370700508347770393F7870FA30BE1
:1008A000F702D1BB130720086386E7046361F702F0
:1008B00013071008E390E7EE3707005083476703FC
:1008C00093F7870F93E72700230BF7026DB3130706
:1008D00030086385E70413074008E39DE7EA37071C
:1008E00000508347270493F7870F93E727002301DE
:1008F000F70451B3370700508347A70393F7870FD7
:1009000093E72700230DF702BDB337070050834755
:10091000B70393F7870FA30DF702B1BB370700505A
:100920008347E70393F7870F93E72700230FF70227
:1009300099B3370700508347F70393F7870FA30F47
:10094000F70215BB370700508347370493F7870F2B
:10095000A301F7040DB303C781B87D8B19EB93870F
:1009600081B883D727000547E396E7E2238EF1821B
:1009700019B38946E310D7E2938781B883D627005D
:10098000E39A06E083C747009146638AD70C63E485
:10099000F6026385E7086369F70A0547E39CE7DE2B
:1009A000370700508347770393F7C70FA30BF7026E
:1009B00093E73700EDB5130720086386E70463610A
:1009C000F70213071008E397E7DC37070050834767
:1009D000670393F7C70F230BF70293E73700EDB5D3
:1009E000130730086387E70413074008E394E7DA46
:1009F000370700508347270493F7C70F2301F704F5
:100A000093E73700EDB5370700508347A70393F707
:100A1000C70F230DF70293E73700EDB537070050F6
:100A20008347B70393F7C70FA30DF70293E7370088
:100A3000DDB5370700508347E70393F7C70F230F50
:100A4000F70293E73700DDB5370700508347F70318
:100A500093F7C70FA30FF70293E73700CDB537071A
:100A600000508347370493F7C70FA301F70493E7B8
:100A70003700F9BD23000900F9BB238401B893872F
:100A8000A18383D607000547E377D7BE2390E7000D
:100A9000DDB6938781B883D74700239401B8130646
:100AA0001008BA866393C702B707005083C767036D
:100AB0008D8B0D476395E70085472384F1B89387B5
:100AC000A18383D607000947C1B705476397E700AD
:100AD000B707005083C77703E1BF13072008639768
:100AE000E700B707005083C7A703D9B70947639743
:100AF000E700B707005083C7B7035DBF0D47639892
:100B0000E700370700500347F7030D8B65B713065F
:100B100030086398C700B707005083C7E7038D8B81
:100B200051BF130640086397C700B707005083C73B
:100B30002704F5B71146E394C7F8B707005083C7F9
:100B40003704F1BF83C777001D4793F7F703811779
:100B500093F7F70FE367F7C40D678A071307C72EEC
:100B6000BA979C43828783C7A1AE154793F7F70FC7
:100B70006380E70619476390E70883D781AE1D4776
:100B800021446366F70003D481AE1374F40F03A508
:100B900041B083A501AF2286EF10A04283D781AE7A
:100BA000131704014183998FC207C1832394F1AEC7
:100BB00083A701AF3E9423A881AEB70700502398C6
:100BC000E70203C72703134747002389E702D1BE83
:100BD000370700508347370083D681AE93F7070865
:100BE000D58F93F7F70FA301F70089472309F70281
:100BF000A30907027DB6B7070050239807020947EB
:100C00002389E702A389070269BE37070050231A28
:100C100007028347670393F7C70F93E72700230B68
:100C2000F702239F0182B5BE37070050231C07023D
:100C30008347A70393F7C70F93E72700230DF70216
:100C400023900184B9BE37070050231E0702834753
:100C5000E70393F7C70F93E72700230FF7022391CA
:100C6000018481B6A3840184370700502310070450
:100C7000231007048347270493F7C70F93E7270040
:100C80002301F7042392018429BE370700508347CC
:100C9000670493F7C70F93E727002303F70411B600
:100CA000370700508347A70493F7C70F93E7270040
:100CB0002305F704FDB4370700508347E70493F793
:100CC000C70F93E727002307F704E1BC03C7A1AED2
:100CD00093060002639FE60883C5A1AE3735000086
:100CE00013054540EF104039370400508347740026
:100CF00093F70704E38707AA8357840003A741B04B
:100D000083A78180834567002383B700834657000C
:100D1000E205E185A382D70003464700E206E186AB
:100D20002382C70003450700620661862380A7006F
:100D300003451700A380A700034527002381A700D0
:100D400003473700A381E7008843752B03568400CF
:100D500037050020938581B81305850DEF106026B7
:100D6000231804028347340393F7C70FA309F4023F
:100D70000DBC37070050231807028347370393F74A
:100D8000C70F93E727003DB2B707005003C77700AE
:100D900013770704E30707A003C777031347470048
:100DA000A38BE70203D587001375F50FEFF06FF4FF
:100DB000CDBAB707005003C7770013770704E302E3
:100DC000079E03C7B70313474700A38DE70203D568
:100DD00087001375F50FEFF0EFF3E1B2B70700509E
:100DE00003C7770013770704E30D079A03C7F703D8
:100DF00013474700A38FE70203D587001375F50F4C
:100E0000EFF06FF379BA370700508347770093F715
:100E10000704E388079883568700A38CD182834711
:100E2000370493F7C70F93E72700A301F704238C38
:100E3000018285BAB707005003C77700137707040C
:100E4000E301079603C7770413474700A383E7042A
:100E500003D587001375F50FEFF0CFEF99B2B70701
:100E6000005003C7770013770704E30C079203C70A
:100E7000B70413474700A385E70403D5870013751C
:100E8000F50FEFF00FEF31BAB707005003C7770047
:100E900013770704E307079003C7F70413474700D6
:100EA000A387E70403D587001375F50FEFF04FEE26
:100EB000CDB893761700ADCEA3810700A3890702B2
:100EC000A38B0702A38D0702A38F0702A381070448
:100ED000A3830704A3850704A3870704094723897D
:100EE000E702238BE702238DE702238FE7022381AA
:100EF000E7042383E7042385E7042387E70483C605
:100F0000670093E616002383D7002383E700114789
:100F10002383E700A3830184238401842383018442
:100F2000A38C0182A38401842382019E730020305C
:100F30009376470081C603C7570011472383E70014
:100F40007300203001118545214506CE02C202C43E
:100F500002C6EF009049E1772312F10037150140F6
:100F6000930780043EC64C008D47130505C03EC460
:100F7000EF00501CF24005618280411122C43714F9
:100F80000140A165130504C006C6EF00D0268147C5
:100F900019E95145EF007073A165130504C0EF0016
:100FA000902593371500B24022443E85410182804E
:100FB0007971094506D622D426D24AD04ECE52CCDB
:100FC00056CA5AC85EC662C466C27164EF00502336
:100FD000EF00706A13050420EF0010729922814619
:100FE0000146814513050420392E83A5018137353B
:100FF000000013058540EF10200837350000130569
:101000008541EF1000192945EF00306CEFF0CFBAA1
:10101000153FB707005023980702239C0702239A25
:1010200007022390070481498144D28B054C138920
:10103000C1C9A13771C183D72184C207C183E5FF2C
:1010400003A501B021469385C18213050504EF0075
:1010500050772145EFF04FC2854983C5918395C5EF
:10106000138541C15922B7070050A38C018203C7E1
:1010700037041377C70FA381E70403C73704134767
:101080004700A381E704238C018283D7C18413879F
:10109000C18481C7850493F4F40F83C69184D1FA87
:1010A00013F4F70F59D48385E18405469386E184D0
:1010B0006386C5001306800CE37D96F62380060048
:1010C00083C58184930600043386850063D7C600F8
:1010D000130400040D8C1374F40F818F2286CA95BB
:1010E000138541C52310F700A3848185EF00706D3F
:1010F0002285EFF0CFB935BFE38109F683D721848C
:10110000C207C183E5FF03A501B021469385418253
:1011100013050504EF00F06A2145EFF0EFB58149B2
:101120002DBF5D718545054586C6A2C4EF00102A16
:10113000370402401305C406D923B74700409387FC
:1011400047403ECA9387C1CD3ECC83D7C1804C086F
:101150001305C4063ED0930700083ED485673EDCE5
:1011600002CE02D202D602D802DA02DEEF00E06F2F
:1011700037052000EF00207937054000EF00A07808
:10118000054699451305C406EF00E0729307001267
:101190002316F10085472307F100680085473EC804
:1011A000EF0070061305C4068545EF00806FB6405A
:1011B000264461618280411122C42A84374500405F
:1011C000930540421305054006C6EF00704922858D
:1011D0008145C12D83D5C1802285EF00E06E228537
:1011E0002244B240854541016DAD011126CAB74484
:1011F000004022CC4AC84EC606CEAA892E89014498
:101200009384044093170401C18363E327033744A5
:10121000004013040440930500042285EF00703E53
:101220007DD9F2406244D2444249B249056182808C
:10123000930500042685EF00D03C7DD9B387890053
:1012400083C5070026850504EF00703A65BF239C1F
:10125000B1C81387C1C9814793960701C18263E36F
:10126000B6008280B306F50003C806003386E700A7
:1012700085072300060123800600F9BF41113705C9
:10128000200022C626C4B92515C537052000A52D86
:1012900037052000792D3704024081451305C40627
:1012A000092583D5C1801305C406392D854513054D
:1012B000C406C52B37054000312D29C13705400034
:1012C000992537054000B525B704024081451385AF
:1012D000C406C12B03D4C1801385C406C52BB30536
:1012E000A440C205C1811385C1CD2396B184853741
:1012F00005471385C4062385E184753D3244A24425
:101300004101730020305D71CAC04EDE2E89AA896A
:1013100085453705060086C6A2C4A6C23684B284B7
:1013200052DC02CA02CC02CE02D002D202D402D6D1
:1013300002C602C8EF00500D85453145EF00F00AA6
:101340009147231AF100371A01408D473ECC4C08D3
:10135000E14713050A803ECEF12BA147231AF10085
:101360004C08914713050A803ECEE923373500002B
:10137000B147CE85130545442315F1024ED0231203
:101380002103231391022314810223160102EF008B
:10139000B04E37350000CA8513058545EF00D04DA6
:1013A00037350000A68513050547EF00F04C3735AB
:1013B0000000A28513054548EF00104C374400405B
:1013C0000C1013050440EF00900E13050440C145B6
:1013D000EF00F02313050440054693054042EF005B
:1013E000501C05469305000413050440EF00D01E71
:1013F000930760232316F10085472307F100680057
:1014000085473EC80925130504408545EF00B01700
:10141000B640264496440649F259625A6161828078
:10142000411122C637440040930540421305044051
:1014300026C4EF00B01E21C5C14513050440EF00CE
:10144000101D13050440EF00301BB7040240814516
:101450001385C406B92103D4C1801385C406BD21F8
:10146000B305A440C205C1811385C1CD2396B184C3
:10147000F93B05471385C4062385E1842D3B37449A
:101480000040A14513050440EF00B01785476316DF
:10149000F50013050440EF0030163244A244410128
:1014A00073002030B71702409843B706FFF8411188
:1014B0001367170098C3D84337060200758FD8C347
:1014C0009843B706F7FEFD16758F98C39843B70685
:1014D000FCFFFD16758F98C3D843B70681FFFD1634
:1014E000758FD8C39843B70600ECFD16758F98C367
:1014F0003707FF0098C723A6070202C402C6984315
:10150000C166558F98C3B716024005679C42F18F9C
:101510003EC6A24785073EC4B24781E7A247E3978C
:10152000E7FEB71702409C431397E700635707068F
:1015300085473EC632478547631FF704B717024009
:10154000D843B706C1FFFD16D8C3D843D8C3D84384
:1015500013670740D8C3D843758FD8C3D843B7069D
:101560001D00558FD8C39843B7060001558F98C307
:10157000984393166700E3DD06FED843B716024092
:10158000719BD8C3D84313672700D8C32147DC42D7
:10159000B18BE39EE7FE4101828002C661BF01A0DC
:1015A00001A001A001A001A001A001A001A001A033
:1015B00001A001A001A001A001A001A001A001A023
:1015C00001A001A001A001A001A001A001A001A013
:1015D00001A001A001A001A001A001A001A001A003
:1015E00001A001A001A001A001A001A001A001A0F3
:1015F00001A001A001A001A001A001A001A001A0E3
:1016000001A001A001A001A001A001A001A001A0D2
:1016100001A001A001A001A001A001A001A001A0C2
:1016200001A001A001A001A001A001A001A001A0B2
:1016300001A001A001A001A001A001A001A001A0A2
:1016400001A001A001A001A001A001A001A001A092
:1016500001A001A001A001A001A001A097F1FF1F1E
:101660009381C127177100201301C199172500002C
:10167000130585EC97F5FF1F9385C5981386818325
:1016800063FAC5008322050023A0550011059105CA
:10169000E3EAC5FE13858183938501D26377B500A4
:1016A000232005001105E36DB5FEFD42739002BCD9
:1016B000FD4273904280B76200009382820873A05B
:1016C000023097F2FFFF9382629793E232007390A9
:1016D000523037F5FF1F930500302318B51A37290C
:1016E00002400325C90005897DF9EFF0BFDB9702B1
:1016F00000009382228C73901234730020301C41BE
:1017000041677917F98F1CC12320050023220500AA
:1017100023240500B707024023260500138787000E
:101720006317E500D8431367F700D8C38280138797
:10173000C7016316E500D8431367070FFDB713878A
:1017400007036318E500D8438566938606F0558F36
:10175000E9BF138747046315E500D843BD66C5BFDD
:10176000138787056316E500D843B7060F00C5B792
:101770001387C7066316E500D843B706F000C1BF5C
:10178000138707086316E500D843B706000FC1B7F3
:10179000138787406319E50003A747401367F700E5
:1017A00023A2E74082801387C7416317E50003A7A0
:1017B00047401367070FEDB793870743631BF50097
:1017C000B707024003A747408566938606F0558F0A
:1017D000C1BFB7070240138747446316E50003A75C
:1017E0004740BD66EDB7138787456317E50003A73C
:1017F0004740B7060F00E1BF1387C7466317E500F0
:1018000003A74740B706F000D9B713870748631707
:10181000E50003A74740B706000F55BF13870749E8
:101820006319E50003A7474D1367F70023AAE74CA8
:1018300082801387074A6317E50003A7474D1367A4
:10184000070FEDB71387074B6319E50003A7474D53
:101850008566938606F0558FD1BF1387074CE31931
:10186000E5FC03A7474DBD66FDB71C4161773D0709
:1018700094517D8F9C45D58F9449D58FD449D58F70
:10188000944DD58FD44DD58FD451D58F9455D58FB8
:10189000D98F1CC1DC455CC19C411CC5DC415CC5C9
:1018A00082801C4189C593E717001CC18280416773
:1018B0007917F98FDDBF1C4101C6DD8D0CC1828017
:1018C00093C5F5FFFD8DDDBF4CC1828048414205C7
:1018D000418182809317350063DA0700B707024021
:1018E00083A707407D8D3335A000828093172500A4
:1018F00063D70700B707024083A7074DE5B7B707CF
:1019000002409C43C5B79317350063D70700B7075C
:10191000024023A2A74082809317250063D70700C7
:10192000B707024023AAA74C8280B7070240C8C36A
:101930008280D1BF9C4513F7070113F8F70001C758
:10194000D8413368E80083D5050013F7F50F39C394
:1019500018418146854E3D4F930F800293028004CB
:10196000214E3396DE00B3F8C50063111603939839
:10197000260033131F011343F3FF3377E300B3183B
:10198000180133E7E800639FF70550C98506E39A1D
:10199000C6FD18C11307F00F6375B7045441214603
:1019A000854E3D4F930F800293028004414EB398C1
:1019B000CE0033F715016392E802131726000117D2
:1019C0003313EF001343F3FFB376D3003317E8006C
:1019D000D98E639DF701232A15010506E319C6FD7B
:1019E00054C18280E39457FA10C94DB7E39757FE6C
:1019F00023281501DDB708456D8D3335A0008280A1
:101A000023A8A1848280938701859443034705001E
:101A100089E683472500920731A8944305466391E0
:101A2000C604834725000346150092076314D600B9
:101A300093E707F8B7E600E093F7F70FBA9623802D
:101A4000F6408546935757003397E6005441ADC69C
:101A5000938707048A07B7E600E0B69798C38280A9
:101A60008C4389466393D50283461500834725003E
:101A70006365D6008A06B69779BF9386E6038A0621
:101A8000B69793F7F70F920765B790438D46631E9D
:101A9000D60083461500834725006364D60086067A
:101AA000D9BF9386C6078606E1BF94439147E39A60
:101AB000F6F88347150085B79387070661BF371788
:101AC00002405C439146B18B6385D700A146638693
:101AD000D706B7177A00938707201CC13716024034
:101AE0005C4237070020130747069183BD8BBA97E6
:101AF00083C607001C41B3D7D7005CC15442A18202
:101B00009D8ABA9683C60600B3D6D70014C5544240
:101B1000AD829D8A369703470700B3D7E7005CC5BF
:101B200058423983937637001387418136970347AC
:101B30000700B3D7E7021CC982805C435443416766
:101B4000C983F98E37F7FF1F0327C770BD8B89073D
:101B50001316170163480600454601476392C70202
:101B6000C94739A809476389E7023D476388E70207
:101B700041476388E702454601476393C700C14771
:101B800085E6B746024083A60680C18A8DC6B71691
:101B90007A009386062025A00147D9B70547B547A7
:101BA000C5B70147BD47E9BFB7160240D4421396F7
:101BB000E600E35E06FCB7163D0093860690B38709
:101BC000D7021CC101DF1C41858301BF99C53717AE
:101BD00002405C4B5D8D48CB8280B7170240D84BEA
:101BE0001345F5FF798DC8CB828099C53717024020
:101BF0001C4F5D8D08CF8280B7170240984F134568
:101C0000F5FF798D88CF828099C5371702405C4FE8
:101C10005D8D48CF8280B7170240D84F1345F5FF3E
:101C2000798DC8CF8280B7170240D857B70600F920
:101C3000FD16758FD8D7D8576205598DC8D78280C1
:101C4000B7170240D857B70600F8FD16758FD8D7DA
:101C5000D8576E05598DC8D78280B7170240D8571C
:101C6000B70600D0FD16758FD8D7D8577205598D95
:101C7000C8D7828009C9371702405C57B7060040B1
:101C8000D58F5CD78280B7160240DC56370700C07C
:101C90007D17F98FDCD68280371702405C577E05AE
:101CA000860785835CD75C575D8D48D782808356D5
:101CB0000501F577FD17F58F83D66500397122DCB4
:101CC00006DED58F03D7C5002318F5008356C5005F
:101CD000FD779387379FF58F83D645002A842EC6DC
:101CE000D58F83D68500D58F83D6A500D58F2316B3
:101CF000F50083574501C207C18393F7F7CFD98F0A
:101D0000231AF5006808653BB747014093870780B1
:101D1000B245631EF404A2578356C4006547B387D7
:101D2000E702C206C186984163D50604060703563A
:101D3000C4004206B3D7E702130740064186B3D674
:101D4000E702B3F7E7029206635706028E0793870E
:101D50002703B3D7E70213F77700B367D700C207AB
:101D6000C1832314F400F25062542161828092579F
:101D700065B70A076DBF920793872703B3D7E702BA
:101D8000BD8BD58FE9BF81C98357C5000967D98F3E
:101D90002316F50082800357C500F977FD17F98FE8
:101DA000C5BF13F7F50F85471583B395B7006319C2
:101DB000F7009307C500984301CED98D8CC382806C
:101DC000894693074501E318D7FE93070501E5B758
:101DD00093C5F5FFF98DDDB78357450109C6DD8D44
:101DE000231AB500828093C5F5FFFD8DD5BF93F50D
:101DF000F51F2312B5008280035545001375F51FAA
:101E00008280035505006D8D3335A000828093C517
:101E1000F5FFC205C1812310B500828013F7F50FCD
:101E200085461583B397B6006313D7020357C500E1
:101E3000F98F0357050001454207418381CB0545D2
:101E4000A181B315B5006D8F3335E00082808946DE
:101E50006315D70003570501E1BF03574501C9BF0B
:101E6000A1818547B397B70093C7F7FFC207C18326
:101E70002310F500828083A7018137177A001307AA
:101E80000720B3D7E70293F7F70F238BF1841307EB
:101E9000803EB387E702239AF1848280B7F700E09F
:101EA000D8438146799BD8C303C761853306A7020F
:101EB00090CBD4CB98431367170398C3D843058BB3
:101EC00075DF9843799B98C38280B7F700E0D843C9
:101ED0008146799BD8C303D741853306A70290CBAF
:101EE000D4CB98431367170398C3D843058B75DF8A
:101EF0009843799B98C38280797122D42A84116592
:101F00008545110506D6D531930700202312F1002F
:101F1000371501408D473EC44C00E147130505804D
:101F20003EC6EFF03FA122C837440140B707080082
:101F30000C08130504803ECC02CA231E0100853B19
:101F40001305048085458135B25022544561828055
:101F5000011126CAB744014022CC4AC84EC606CE5B
:101F6000AE893289014493840480634A2401F2409B
:101F700062444A85D2444249B24905618280930550
:101F800000042685BD3D65DDB38789008385070094
:101F900026850504C205C181993DC1BF1387818192
:101FA0001C43938601D23E95636BD500B786002013
:101FB0009386068063E5A60008C33E858280FD57B0
:101FC000EDBFB3C7A5008D8B3307C50081E78D47F3
:101FD00063EEC700AA876370E50A83C6050085071C
:101FE0008505A38FD7FEE3EAE7FE8280937635006E
:101FF000AA8791CA83C6050085078505A38FD7FEEA
:1020000093F63700FDB79376C7FF138606FE63F09D
:10201000C70683A3050083A2450083AF850003AFF5
:10202000C50083AE050103AE450103A3850183A866
:10203000C5019385450223A0770003A8C5FF23A20D
:10204000570023A4F70123A6E70123A8D70123AA59
:10205000C70123AC670023AE17019387470223AE65
:1020600007FF75B790419107910523AEC7FEE3EBDB
:10207000D7FEE3E4E7F6828039713EDA2ED232D41D
:1020800036D63AD842DC46DE9387C18122CC8043E3
:1020900026CA06CEAA8409C41C4C99E322851523BE
:1020A0000C4454102686228536C6EF007016F24086
:1020B0006244D24421618280011126CA4AC806CEF8
:1020C00022CC4EC652C4AA842E8901C51C4D91E370
:1020D000CD299C4C804499E32685E5219717000083
:1020E0009387C73D631CF402C0408357C400A18B93
:1020F000B1C71C48A1C7FD59294A1C4483450900A2
:10210000FD17B1E91CC463DE07062286A9452685B2
:102110007120FD576308F502294535A09717000087
:102120009387C73B6314F4008044C1B7971700003E
:102130009387C736E31BF4FAC04445BFA2852685C2
:10214000312A55D97D55F2406244D2444249B249C0
:10215000224A056182801CC4050963D70700184C18
:1021600063CBE700638945011C401387170018C043
:102170002380B70059B7228626850D20E31F35F747
:10218000D1B71C401387170018C029472380E700E8
:1021900061B79387C181AA85884339BF011122CCD9
:1021A00026CA4AC806CE4EC6AA842E89328401C5E4
:1021B0001C4D91E33921971700009387273063194D
:1021C000F406C0401C4C1CC48357C400A18BC9C377
:1021D0001C48BDCF1C4808409379F90F1379F90FBB
:1021E0001D8D5C486346F500A2852685652C2DE58E
:1021F0001C440505FD171CC41C401387170018C09C
:10220000238037015C486389A7008357C400858B0E
:1022100081CBA9476316F900A285268561240DEDBF
:10222000F24062444A85D2444249B2490561828003
:10223000971700009387872A6314F400804459B7E6
:102240009717000093878725E31EF4F6C0449DBFCF
:10225000A285268521203DDD7D59D9B7411193877F
:10226000C18126C2844322C44AC006C62A892E845C
:1022700089C49C4C99E32685A9269717000093876B
:10228000E723631CF402C0400317C400931707013F
:10229000C18393F68700B5EE93F607019DEEA5473F
:1022A0002320F900136707042316E4007D55B2408C
:1022B000224492440249410182809717000093878B
:1022C000E7216314F4008044C1B797170000938797
:1022D000E71CE31BF4FAC04445BF918B8DC74C58F3
:1022E00089C9930744046384F5004A85352B232A62
:1022F00004028357C4002322040093F7B7FD23167A
:10230000F4001C481CC08357C40093E787002316C1
:10231000F4001C4881EF8357C4001307002093F793
:1023200007286385E700A2854A8585218357C40075
:1023300013F7170005C75C4823240400B307F040D7
:102340001CCC1C480145A5F78317C40013F70708E8
:1023500039DF93E707042316F40089BF898B01470F
:1023600091E3584818C4F1BF83D7C500011122CCAE
:1023700026CA06CE4AC84EC613F78700AA842E8402
:1023800071EFD841634DE000B841634AE000014578
:10239000F2406244D2444249B249056182805854B5
:1023A0007DD703A904009396370123A0040063DDC1
:1023B000060670488357C400918B99C75C401D8EF8
:1023C0005C5899C33C401D8E5C540C508146268558
:1023D0008297FD570357C400631DF5009440F547ED
:1023E00063E8D706B70740208507B3D7D700858BAA
:1023F000A5C31C48232204001CC09317370163D8CF
:102400000700FD576314F5009C4091E368C84C58E1
:1024100023A02401ADDD930744046384F5002685E1
:102420002121232A0402A5B70C50014685462685A2
:102430000297FD572A86E31FF5F69C40A5DF7547F6
:102440006385E70059476394E70423A0240181B71B
:10245000136707042316E4007D551DBF83A90501FA
:10246000E38709F203A905008D8B23A03501330909
:102470003941014791E3D84918C4E35A20F11C546B
:102480000C50CA864E86268582976349A0008357E2
:10249000C40093E707042316F4007DBFAA9933090B
:1024A000A940E1BF9C49B9CF011122CC06CE2A84B4
:1024B00011C51C4D81E72EC62922B2459717000091
:1024C0009387C7FF639BF5004C408397C50095C772
:1024D00022856244F240056141BD97170000938751
:1024E000E7FF6394F5000C44CDB79717000093877E
:1024F000E7FAE39CF5FC4C44C9BFF2406244014555
:102500000561828001458280411122C406C62A8469
:102510002316B5002317C50023200500232205003C
:10252000232405002322050623280500232A05006D
:10253000232C0500214681451305C505EFD05FCC4E
:1025400097170000938787B45CD097170000938794
:10255000E7B61CD497170000938727BB5CD4971766
:1025600000009387E7BD00D01CD8B240224441014F
:10257000828097050000938525F3A9A2411126C208
:10258000130680069384F5FFB384C4024AC02E89E3
:1025900022C406C693854407252E2A8401CD232014
:1025A000050023222501310508C4138684068145D0
:1025B000EFD01FC52285B240224492440249410116
:1025C00082801C4DADE3411106C622C4970700006E
:1025D000938767FA1CD5938741839C432324050482
:1025E00023260504232805046314F50085471CCD24
:1025F0002A841D2848C02285052808C422852D204C
:1026000048C4484001469145013708440546A54560
:10261000E53D48440946C945C53D85471CCCB24007
:10262000224441018280828041119387418326C2E6
:1026300084434AC006C69C4C22C42A8999E3268555
:102640004937938484048044DC40FD1763D6070037
:102650009C40B9CF8440C5BF0317C40039E7C17798
:1026600085072322040623200400232204002324B8
:1026700004005CC423280400232A0400232C040043
:10268000214681451305C405EFD09FB7232A0402D4
:10269000232C040223240404232604042285B240AC
:1026A000224492440249410182801304840671BF8E
:1026B00091454A85E13588C051FDB1472320F90095
:1026C0000144E9BF797122D44AD052CC56CA5AC8C3
:1026D0005EC606D626D24ECE2A8AAE8A130485045A
:1026E0000149054BFD5B09ECB25022544A859254D6
:1026F0000259F249624AD24A424BB24B456182804A
:10270000044483294400FD1963D409000040E1BF5B
:1027100083D7C400637BFB008397E4006387770162
:10272000A6855285829A3369A90093848406E1BF05
:102730001971A6DAAE848395E500A2DC86DE3284C8
:1027400063DC050083D7C40023A0060093F70708C5
:1027500085E7930700401DA0300836C6EF00D02360
:10276000B246E34105FE7247BD67F98F7977BA97A4
:1027700093B717009CC2F1BF930700041CC0F6502A
:102780006654D65401450961828083D7C500011182
:1027900022CC06CE26CA4AC8898B2E8489CF9307BD
:1027A00074041CC01CC885475CC8F2406244D24413
:1027B00042490561828074003000AA84953FA24599
:1027C0002A892685312201ED8317C40013F70720DB
:1027D00069FFF19B93E727002316F400C9B7970719
:1027E0000000938747D99CD48357C40008C008C809
:1027F00093E707082316F400A2475CC8B24791CFBD
:102800008315E4002685EF00D01B01C98357C4005F
:10281000F19B93E717002316F4008357C400336934
:10282000F9002316240151B7DDC183A7C5FF41116B
:1028300022C406C626C21384C5FF63D307003E9494
:10284000AA84EF00F01E938781859C4381EF2322A9
:10285000040023AC81842244B24026859244410185
:102860006F00301D637EF40014403307D40063967C
:10287000E7009843DC43369718C05CC0D9BFBA87DD
:10288000D84319C3E37DE4FE94433386D700631F26
:1028900086001040B29694C33386D700E31DC7FA72
:1028A00010435843B29694C3D8C375B76375C40038
:1028B000B1479CC04DB71040B306C4006316D700A3
:1028C00014435843B29614C058C0C0C369B782803D
:1028D000011126CA93843500F19806CE22CC4AC84D
:1028E0004EC6A104B14763F3F404B14463E2B404F7
:1028F0002A89EF00F0139387818598433A8439E061
:102900009387C1859C4391E781454A85892F23AEF2
:10291000A184A6854A85A127FD5963193507B147CA
:102920002320F9004A85EF00D01029A0E3D004FC51
:10293000B1471CC10145F2406244D2444249B24908
:10294000056182801C40858F63CF0702AD4663F628
:10295000F6001CC03E9404C031A05C4063138702A3
:1029600023ACF1844A85EF00D00C1305B400930723
:10297000440061993307F5405DDF3A94898F1CC0AC
:102980005DBF5CC3C5B72287404095BF13043500C7
:102990007198E30285FCB305A4404A85C925E31C70
:1029A00035FBB5BF1C46FD171CC663DA0700184E81
:1029B00063C5E700A9476394F5006FF02FFE1C4242
:1029C0002E851387170018C22380B700828001115B
:1029D00022CC26CA4AC84EC652C406CE2A89AE891F
:1029E0003284B304D6007D5A63149400014509A8CB
:1029F000834504004E864A8575370504E31645FF76
:102A0000F2406244D2444249B249224A056182807E
:102A1000357122CD26CB4AC94EC706CF52C556C303
:102A20005AC1DEDEE2DCE6DAAA89AE843289368477
:102A300009C51C4D99E3EFF0DFB8971700009387A5
:102A4000E7A7639BF40C83A4490083D7C400A18B40
:102A5000F5C79C48E5C793070002A304F10293075A
:102A6000000302D22305F10222C6930B5002971AEB
:102A70000000938AAAA8054C294B4A848347040086
:102A800099C36390770FB30C2441638D0C00E686E5
:102A90004A86A6854E85253FFD576306F51E92564C
:102AA000E69636D283470400638F071CFD5713094F
:102AB000140002C802CE3ECA02CCA309010482D48B
:102AC0008345090015465685B92713041900C247E6
:102AD00059E913F7070109C713070002A309E10425
:102AE00013F7870009C71307B002A309E10483465F
:102AF00009001307A0026380E608F2474A84814672
:102B000025460347040093051400130707FD637966
:102B1000E60AB5CA3ECE85A8971700009387079CA2
:102B20006395F40083A489000DB79717000093877D
:102B3000E796E39CF4F083A4C90001BFA6854E8507
:102B4000EFF0CFF109D97D55FA406A44DA444A4999
:102B5000BA492A4A9A4A0A4BF65B665CD65C0D6112
:102B60008280050421BF330555413315AC00C98F60
:102B70003EC82289B1B7324793064700184336C68C
:102B8000634907023ACE034704009307E002631F3C
:102B9000F704034714009307A002631BF702B24730
:102BA0000904138747009C433AC663C107023ECA23
:102BB00035A83307E04093E727003ACE3EC8E1B797
:102BC000B387670385462E84BA9725BFFD57C5B7DF
:102BD000050402CA81468147254603470400930540
:102BE0001400130707FD6376E606F1F2834504003F
:102BF0000D46171500001305E590312D11CD9717DF
:102C00000000938727901D8D93070004B397A700BA
:102C1000424505045D8D2AC88345040019461715F1
:102C200000001305658E130914002304B102E52387
:102C30003DC197D7FFFF9387E73C95E74247B247EF
:102C40001377071009CF91073EC69257D2973ED20D
:102C50002DB5B387670385462E84BA97BDBF9D0700
:102C6000E19BA107D5B7780097060000938666D64A
:102C700026860C084E8597000000E7000000FD57EF
:102C80002A8AE314F5FC83D7C40093F70704E39C76
:102C900007EA125555BD780097060000938666D363
:102CA00026860C084E85012AD9BF797156CA9C49DF
:102CB000BA8A984522D426D24ECE52CC06D64AD0D5
:102CC0005AC85EC6AA892E84B284368A63D3E700C6
:102CD000BA879CC00347340419C385079CC01C40B5
:102CE00093F7070281C79C4089079CC00329040011
:102CF00013796900631A0900130B9401FD5B5C44AE
:102D00009840998F634CF9041C408346340493F730
:102D10000702B336D000A5EB13063404D2854E85E6
:102D2000829AFD576303F5041C4011469840998B25
:102D3000544481446397C700B384E64063D30400DE
:102D400081441C4418486354F700998FBE9401498C
:102D500069047D5B63982405014509A885465A8668
:102D6000D2854E85829A631E75017D55B2502254DC
:102D700092540259F249624AD24A424BB24B4561DF
:102D800082800509ADBF3307D40013060003A301F9
:102D9000C7040347540493871600A2978906A381AA
:102DA000E7049DBF85462286D2854E85829AE30E32
:102DB00065FB050945B7797122D426D24AD04ECE9B
:102DC00006D652CC56CA5AC8B68983C6850193071F
:102DD00090063289AA842E8413863504638DF60208
:102DE00063E2D706930780056387F61863EDD70083
:102DF0006380062293073004638EF60A930A240444
:102E00002301D404C9A0930730066385F60A93070B
:102E10004006E395F6FE1C40084393F60708930529
:102E20004500C5C61C410CC363D807001307D00278
:102E3000B307F040A301E404970600009386466DB3
:102E400029476DA8930700076383F61663E5D70249
:102E50009307E006638AF6189307F006E390F6FA04
:102E60000C401C4313F80508138547006307080648
:102E700008C39C438DA893075007E383F6FE93078E
:102E80008007638AF61293073007E399F6F61C432E
:102E9000D04181459386470014C383AA0700568515
:102EA0009D2E01C53305554148C05C401CC8A30197
:102EB000040471A81C43930A2404938647009C438E
:102EC00014C32301F4048547D5B793F607041C41C6
:102ED0000CC3B9DAC207C18781BF93F5050408C3E3
:102EE000C9D983D707001307F0066387E60E970654
:102EF00000009386E6612947A30104044C400CC4FA
:102F000063C5050008406D9908C099E3B28A91CD68
:102F1000B28AB3F5E702FD1AB69583C50500238092
:102F2000BA00B3D5E70263FFE70AA147631EF700C3
:102F30001C40858B91CB58401C4863C7E700930722
:102F40000003A38FFAFEFD1A3306564110C84E87C0
:102F5000CA867000A2852685893B7D5A631E450B73
:102F60007D55B250225492540259F249624AD24AD3
:102F7000424B45618280A382D50497060000938668
:102F800026590C40084313F805081C411105630D30
:102F9000080208C313F7150001C793E505020CC02A
:102FA0004147B9FB0C4093F5F5FD0CC0B1B79C410E
:102FB00093E707029CC193078007A302F4049706D6
:102FC00000009386265675BF13F8050408C3E30373
:102FD00008FCC207C1837DBF970600009386465355
:102FE000214719BFAE8735B794411C43CC4913F82C
:102FF0000608138547006306080008C39C438CC37A
:1030000001A808C393F606049C43F5DA2390B700A1
:1030100023280400B28A25BF14485686CA8526850F
:103020008299E30F45F31C40898B8DE7B2474844F2
:10303000E359F5F23E8535B785465686CA8526851D
:103040008299E30F65F1050A5C443247998FE345A5
:10305000FAFEE9BF014A930A94017D5BF5B741117D
:1030600022C42A842E8523AE01D006C6EFE01FF3CA
:10307000FD576317F5009387C1D19C4391C31CC0D2
:10308000B240224441018280411122C42E848395A2
:10309000E50006C64522634905007C48AA977CC81E
:1030A000B2402244410182808357C4007D777D175E
:1030B000F98F2316F400EDB783D7C500011122CC98
:1030C00026CA4AC84EC606CE93F70710AA842E8495
:1030D0003289B68991C78395E50089460146312238
:1030E0008357C4007D777D17F98F2316F40083156D
:1030F000E4006244F240CE864A86B24942492685BF
:10310000D24405613DA8411122C42E848395E50077
:1031100006C6E128FD570357C400631BF500FD7781
:10312000FD17F98F2316F400B2402244410182803A
:103130008567D98F2316F40068C8FDB78395E5002D
:1031400005A8411122C42A842E85B285368623AE75
:1031500001D006C6EFE0DFDFFD576317F500938768
:10316000C1D19C4391C31CC0B24022444101828022
:10317000411122C42A842E8523AE01D006C6CD205B
:10318000FD576317F5009387C1D19C4391C31CC0C1
:10319000B240224441018280411122C42A842E85FA
:1031A000B28523AE01D006C6D120FD576317F500C6
:1031B0009387C1D19C4391C31CC0B24022444101BA
:1031C0008280411122C42A842E8523AE01D006C6F6
:1031D0006520FD576317F5009387C1D19C4391C3C8
:1031E0001CC0B240224441018280411122C42A8481
:1031F0002E85B285368623AE01D006C66120FD57E6
:103200006317F5009387C1D19C4391C31CC0B240A2
:1032100022444101828093F5F50F2A966314C5007C
:103220000145828083470500E38DB7FE0505FDB7A4
:1032300082808280411122C42A842E85B2853686FE
:1032400023AE01D006C6A920FD576317F50093876A
:10325000C1D19C4391C31CC0B24022444101828031
:103260009307800523AEF1D07D55828093078005BA
:1032700023AEF1D07D5582809307800523AEF1D037
:10328000014582809307800523AEF1D07D55828071
:103290009307800523AEF1D07D558280CC0C0000D1
:1032A000880D0000B20D0000DC0D0000060E0000CD
:1032B000340E00005E0E0000880E0000920A00002E
:1032C0006C080000940700005609000094070000F5
:1032D00044080000D2060000940700004E080000D9
:1032E00062080000740A00007A0A0000660B000001
:1032F0000A0C0000280C0000460C0000640C0000C2
:103300008A0C0000A00C0000B60C0000090264004A
:10331000030100A032080B000202020100090400B0
:103320000001020201000524001001052401000033
:10333000042402020524060001070581030800FF9A
:1033400009040100020A0000000705040240000011
:103350000705840240000009040200010301010086
:10336000092110010001223E0007058303400001EE
:103370001201100000000008861AE1E600010102B7
:10338000000100000E037700630068002E00630058
:103390006E0000000C03430048003100300078004C
:1033A00005010906A101050719E029E71500250116
:1033B00075019508810295017508810195037501D4
:1033C00005081901290391029505750191019506DA
:1033D000750826FF000507190029918100C000002B
:1033E000160330003100320033003400350036005F
:1033F00037003800390000000A060002FF00FF40D5
:103400000100000025780A0053797374656D436CE0
:103410006B3A25640D0A0000434833373244657621
:103420006963652052756E6E696E67204F6E205518
:1034300053424F54475F465320436F6E74726F6C14
:103440006C65720055534152545F4261756452611C
:1034500074653D25640A000055534152545F576F0F
:1034600072644C656E6774683D25640A0000000054
:1034700055534152545F53746F70426974733D25C4
:10348000640A000055534152545F50617269747967
:103490003D25640A0000000000000000000000005C
:1034A000000000000000000000000000000000001C
:1034B000000000000000000000000000000000000C
:1034C00000000000000000000000000000000000FC
:1034D00000000000000000000000000000000000EC
:1034E00000000000000000000000000000000000DC
:1034F0000000000000000000232D302B2000000001
:10350000686C4C00656667454647000030313233D1
:1035100034353637383941424344454600000000CF
:103520003031323334353637383961626364656639
:043530000000000097
:103534000907000000000000000000000000000077
:103544000000000000000000000000000000000077
:103554000000000000000000000000000000000067
:103564000000000000000000000000000000000057
:103574000000000000000000000000000000000047
:103584000000000000000000000000000000000037
:103594000000000000000000010203040102030413
:1035A4000607080900000000B8340000D834000001
:1035B400983400000000000000000000000000003B
:1035C40000000000000000000000000000000000F7
:1035D40000000000000000000000000000000000E7
:1035E40000000000000000000000000000000000D7
:1035F40000000000000000000000000000000000C7
:10360400000000000000000000E1000000000801CC
:10361400E40400200002000000A24A040204060898
:10362400F8050020740000200403090400000000D1
:103634000000000000001A000000000074000020D8
:00000001FF
